:100000000C949A020C94D2020C94D2020C94D20258
:100010000C94D2020C94D2020C94D2020C94D20210
:100020000C94D2020C94D2020C94322E0C94062F13
:100030000C9433290C94D2020C94D2020C94D20268
:100040000C94D2020C94D2020C94D2020C94D202E0
:100050000C94D2020C94D6290C94D2020C94D202A5
:100060000C94D2020C94D2020C94D2020C94D202C0
:100070000C94D2020C94D2020C94D2020C94D202B0
:100080000C94D2020C94D2020C94D2020C94D202A0
:100090000C94D2020C94D2020C94D2020C94D20290
:1000A0000C94D2020C94D2020C94D2022B001400B5
:1000B0001A000800150017001C0018000C001200A0
:1000C00013002A004C0004001600070009000A0073
:1000D0000B000D000E000F0033003400E1001D0086
:1000E0001B00060019000500110010003600370043
:1000F00038002800E000E600E300E20023522C0074
:10010000000024525000510052004F002B001400F8
:100110001A00070009000A001C0018000E000F005A
:1001200033002A004C0004001600080015001700D8
:100130000B0011000C00120013003400E1001D0040
:100140001B000600190005000D00100036003700E6
:1001500038002800E000E600E300E20023522C0013
:10016000000024525000510052004F002B00140098
:100170001A00070009000E001C0018000C000F00F8
:1001800033002A004C0004001600170015000A0076
:100190000B0011000800120013003400E1001D00E4
:1001A0001B000600190005000D0010003600370086
:1001B00038002800E000E600E300E20023522C00B3
:1001C000000024525000510052004F0035001E0024
:1001D0001F0020002100220023002400250026000B
:1001E00027002A00290021002200230037003600C2
:1001F000A800AA005200A900111431020100240035
:1002000025002600270022144600500051004F0010
:10021000490001000100010001000100010001008E
:1002200000000100AC00AA00A900AB0035021E02CC
:100230001F0220022102220223022402250226029A
:1002400027022A004C003A003B003C003D003E00E3
:100250003F002D002E002F00300031000100400033
:10026000410042004300440045002D022E022F02AF
:100270003002010001000100010001000100010045
:10028000000001004600A800AD00AE000100007CA7
:10029000027C20782178237824782578267827789E
:1002A0002878405201000100D100D900D20001009D
:1002B000AE00AC00CD00AB000100415201000100D6
:1002C0000100DA0001000100AD00CF00CE00D00037
:1002D00001004252207801000100010001000100EC
:1002E0000000010001000100010001000001010106
:1002F00001010101010102020202020202020203E3
:1003000003030303030303040404040404040505B2
:100310000505050606060606070707070708080875
:1003200008090909090A0A0A0B0B0B0C0C0C0D0D24
:100330000D0E0E0E0F0F0F101011111112121313BC
:100340001414151516161717181819191A1A1B1B35
:100350001C1D1D1E1E1F2020212222232424252691
:1003600026272829292A2B2C2D2D2E2F30313232C9
:10037000333435363738393A3B3C3D3E3F404142D5
:10038000434445464748494A4C4D4E4F50515354BB
:10039000555658595A5B5D5E5F616264656668696F
:1003A0006B6C6D6F7072737577787A7B7D7E8082EF
:1003B000838587888A8C8E8F91939596989A9C9E38
:1003C000A0A2A3A5A7A9ABADAFB1B3B5B7BABCBE48
:1003D000C0C2C4C6C9CBCDCFD1D4D6D8DBDDDFE215
:1003E000E4E7E9EBEEF0F3F5F8FAFDFF2203420053
:1003F0004D0034003000200048006F00740073008E
:1004000077006100700020005200470042000000A9
:1004100016034B005000520065007000750062002A
:100420006C006900630000000403090409023B003A
:10043000020100A0FA0904000001030101000921E2
:100440001101000122400007058103080001090491
:1004500001000103000000092111010001227B00BD
:10046000070582032000011201000200000008506D
:100470004B303401000102000105010902A1018590
:10048000020901A100050919012908150025019596
:1004900008750181020501093009311581257F9513
:1004A000027508810609381581257F950175088137
:1004B00006050C0A38021581257F9501750881060D
:1004C000C0C005010980A101850319012AB70015E3
:1004D0000126B700950175108100C0050C0901A126
:1004E00001850419012AA002150126A002950175B3
:1004F000108100C005010906A101050719E029E7DF
:100500001500250195087501810295017508810185
:100510000507190029FF150026FF009506750881BB
:1005200000050819012905950575019102950175C8
:10053000039101C011241FBECFEFDAE0DEBFCDBFB3
:1005400004B603FE18C08091100590911105A0918A
:100550001205B09113058730904BA740B04B59F46A
:1005600010921005109211051092120510921305A9
:10057000E0E0F8E3099512E0A0E0B1E0E8E7F4E696
:1005800002C005900D92A038B107D9F725E0A0E888
:10059000B2E001C01D92A031B207E1F70E94BD1286
:1005A0000C94BB310C94000081E00E94B8240E949E
:1005B0001429089580E00E94B8240E941329089508
:1005C00025E044E063E00E94880908958630B8F48D
:1005D0006430A8F44C3098F450E09CE0699F400DE2
:1005E000511D1124FA0190E3899FE00DF11D1124A2
:1005F000EE0FFF1FE455FF4F85919491089581E020
:1006000090E008950E94E602089581E0089581E057
:1006100008950E940703089508950E940C03089509
:10062000A5E0B0E0E6E1F3E00C942B3149835A8376
:100630003091870289819A81311119C0662399F01E
:10064000222389F00E942809182F682F89819A8116
:100650000E94040969817A81812F0E942D102596BC
:10066000E3E00C9447310E941609182FF3CF0E9443
:10067000280969817A81F1CFFC01262F40815181BF
:100680006281738184810E941003089581E008953E
:10069000CF93DF93EC0160E00E943C03BE010E9417
:1006A0000D03DF91CF91089508950E94D6070E940F
:1006B00054032FEF84E39CE0215080409040E1F709
:1006C00000C0000008950E9455030E94FA29089571
:1006D0000E9455030E941E2A08950F931F93CF93E3
:1006E000DF938C0161E00E943C03EC01B8010E94A1
:1006F0000903811106C080E0DF91CF911F910F9116
:100700000895B801CE010E94D6278823A1F3B8012D
:10071000CE010E946C26882371F3B801CE010E949D
:100720004827882341F3B801CE010E94E32588239E
:1007300011F3F8018281882361F0C330FCE7DF0701
:10074000E9F058F4C115ECE7DE07A9F0C130DC4749
:10075000B9F0C8010E940503CFCFCB358CE7D8078D
:10076000A9F0CC35ECE7DE0771F0CA35DC4789F734
:100770000E947E0DEECF0E946303BDCF0E94860DC6
:100780000E946803B8CF0E94740DE3CF0E94820DCF
:10079000E0CF0E94D4020E9499230E94F80381E0D6
:1007A0000E94B82408950E94FC0380E00E94B824AF
:1007B0000E94DA020895089581E008950895CF9384
:1007C000DF93D82F0E94DC03C82F882319F08D2FC8
:1007D0000E94DE038C2FDF91CF9108950895CF936F
:1007E000C82F0E94DB038C2F0E94DF03CF91089556
:1007F00080E00E94EF0308950E9424280E94EF03E6
:100800000895CF930E942428C82F809182028C17CC
:1008100079F0C09382020E949F29609383027093B3
:10082000840280938502909386028C2F0E94EF03AE
:10083000CF910895ABE0B0E0E0E2F4E00C942C310D
:100840004F83588769877A878B8761110E94BF0C15
:100850001E821D8285E0FE013796DE011196019011
:100860000D928A95E1F78C819D81892B61F44981F4
:100870005A816B817C818D819E810E94E70B2B9632
:10088000E2E00C94483189819A8189238F3F79F382
:10089000CE0101960E9446038111E9CFF0CFFC0101
:1008A000808191810E945A090895662329F00E944F
:1008B00041130E94141408950E949B13FACFCF9302
:1008C000C82F8823C9F08238C9F40E94242881FDEA
:1008D00013C089E30E94770C0E94E00C2FEF87EE93
:1008E00093E0215080409040E1F700C0000089E390
:1008F0000E947F0C0E94E00CCF9108958338A1F4F0
:100900000E94242880FDF8CF83E50E94770C0E9486
:10091000E00C2FEF81EE94E0215080409040E1F711
:1009200000C0000083E5E4CF8438A1F40E942428AD
:1009300082FDE2CF87E40E94770C0E94E00C2FEF4B
:1009400081EE94E0215080409040E1F700C000002B
:1009500087E4CECF8CEF8C0F813A90F46C2F80918E
:10096000CF019091D0010E94A628882329F08C2FD6
:100970000E947F0C0E94E00C8C2F0E94770CBACF53
:1009800080E28C0F883048F4C77081E001C0880F86
:10099000CA95EAF70E94A20CADCFEBE5EC0FE3306D
:1009A00040F4F0E0ED5DFD4F808190E00E944A2828
:1009B000A3CFE8E5EC0FEB3150F4F0E0EE0FFF1FB2
:1009C000E351FE4F808191810E946F2895CF83E390
:1009D0008C0F833108F090CF61E08C2F0E9455047A
:1009E0008BCF882309F456C0823879F40E942428DA
:1009F00081FF50C089E30E94770C0E94E00C89E3DC
:100A00000E947F0C0E94E00C0895833859F40E94E4
:100A1000242880FF3FC083E50E94770C0E94E00CF1
:100A200083E5EECF843859F40E94242882FF32C037
:100A300087E40E94770C0E94E00C87E4E1CF9CEFF2
:100A4000980F913AE8F290E2980F983050F487703E
:100A500091E001C0990F8A95EAF7892F0E94A80CAE
:100A6000D1CF9BE5980F933028F490E080E00E946E
:100A70004A28089598E5980F9B3128F490E080E08B
:100A80000E946F28089593E3980F933118F460E063
:100A90000E94550408951F93CF93DF93182FEB0105
:100AA0000E945F04209739F4812F0E94F104DF91A6
:100AB000CF911F9108958FE99FE00197F1F700C052
:100AC00000002197EFCF70E060E0893311F460E51A
:100AD00070E00E944B050895882321F00E94A20C2B
:100AE0000E94E00C0895882321F00E94A80C0E9427
:100AF000E00C0895B0E0A0E0E0E8F5E00C942531CA
:100B00006C01D62FC72FFC011281058102950F7051
:100B10000E94980CE82E8823E9F0E12E1123D1F0F1
:100B20008C2F807F803451F080E28D0F8830F8F078
:100B3000011104C08C2F807E8032C9F080911C048A
:100B400082FF15C082E00E94430D0E94980C91E044
:100B5000E82EE926BC2EB2949FE0B922FBE0FB15FB
:100B6000B8F1EB2DF0E0E354FE4C0C941631E12C7F
:100B7000F1CF0C2F0F70C07F11F00295007F112371
:100B800099F0002359F080E28D0F883010F0D111D8
:100B900007C0802F0E94A20C0E94E00C8D2F63C022
:100BA000802F0E94B20CF8CF8D2F0E94F1040023F9
:100BB00079F080E28D0F883010F0D11104C0802FC1
:100BC0000E94A80C03C0802F0E94B80C0E94E00C69
:100BD0002B2D2850330B2430310520F40E9424287B
:100BE0000E94EF03EE2089F00E94940C80FD0DC05E
:100BF000F60112820E948E0C0E946208C6010E94B9
:100C000096070E948E0C0E947208CDB7DEB7E9E00D
:100C10000C9441312C2F2F70F22EC07FC03219F06E
:100C2000F29480EFF822DD2381F0D13009F449C03D
:100C3000112309F451C0002309F448C0F60185814D
:100C400080FFACCF8F70858341C080911C0482FDF2
:100C500015C0112359F0FF2029F08F2D0E94A20CFE
:100C60000E94E00C80E00E945F04B2CF80E00E940E
:100C7000F104FF2009F4ACCF8F2DA2CF112381F016
:100C8000011106C00E94C20C8F290E946C05A0CFE2
:100C90000130C1F70E94C20C8F290E94C90C98CF65
:100CA000011106C00E94D60C8F2D0E94730590CFB3
:100CB000013009F48DCF8F2D0E9473050E94D60C50
:100CC00087CF112329F0063008F082CF8F2DDDCF9A
:100CD000053008F07DCFE8CF002331F3D93349F454
:100CE000FFEF27EE33E0F15020403040E1F700C045
:100CF00000008D2F0E94F1046BCF8C2F8695869576
:100D0000837069F0813009F063CF8D2F9C2F937031
:100D1000111102C080E090E00E946F2859CF8D2F02
:100D20009C2F9370111102C080E090E00E944A282D
:100D30004FCF612F8D2F0E9455044ACF8C2F837087
:100D4000A1F5111145CF4D2F429546954770440F9F
:100D5000440F2D2F2F7030E0042E02C0220F331FBE
:100D60000A94E2F790E080E0D4FF09C08FE090E0C1
:100D700002C0880F991F4A95E2F780959095C69515
:100D8000C695C370822B932BC23049F058F4C13002
:100D900019F00E9435081CCF0E942C0819CF0E9420
:100DA0003E0816CF0E94290813CF8695112311F013
:100DB0008C2F8170882309F40BCF4D2F42954695D7
:100DC0004770440F440F2D2F2F7030E0042E02C0C7
:100DD000220F331F0A94E2F790E080E0D4FF09C0AD
:100DE0008FE090E002C0880F991F4A95E2F7809546
:100DF0009095C695C695C370822B932BC23049F04F
:100E000058F4C13019F00E949D08E2CE0E94940867
:100E1000DFCE0E94A608DCCE0E944A08D9CECF7051
:100E2000112329F08C2F0E9462088D2F2ECF8D2F39
:100E30000E9473058C2F0E947208CACED23F41F1E6
:100E400060F4D03FB9F0D13F81F0112309F446C0DE
:100E50000111A4CE8C2F8F711FC0D33F01F1D43F5D
:100E6000A1F780911C0482FD24C08C2F8F71112367
:100E700011F312C0112341F0053008F0A9CE8C2FD8
:100E80008F710E948408A4CE063008F0A1CEF7CF5F
:100E90008C2F8F711111CFCF0E94620899CE112330
:100EA00029F08C2F8F710E94560892CE0E94510813
:100EB0008FCE112349F0CF718C2F0E94620863E01E
:100EC0008C2F0E94250D84CE81E00E94430D0230BC
:100ED00008F47ECE82E00E94430D7ACE002359F0C2
:100EE000D93309F006CF8FEF97EEE3E081509040C1
:100EF000E040E1F7FCCE8C2F8F719DCF0F931F93B5
:100F0000CF93DF93EC01688179818A810E94650922
:100F10008C010E94AF080E942808B801CE010E94EF
:100F20007A05DF91CF911F910F910895CF93DF93B1
:100F3000EC018B819C81892B29F0888199818923FF
:100F40008F3F51F4DF91CF910895CE010E947E072B
:100F5000CE010E944803F6CFCE010E946D0381119D
:100F6000F4CF0E94980C882369F38A81882351F377
:100F700080911C0482FFE6CF82E00E94430DE2CF05
:100F800090E080E00E944A2890E080E00E946F2874
:100F90000E94BF0C0E94E00C0E9430140E941414A6
:100FA00008950E94870C0E94C00708950E94AF0C0C
:100FB0000E94D107089592959F70963091F058F451
:100FC000925F9F70923058F4803F19F030F4883E61
:100FD00030F481E008959A5FF4CF843FD1F380E04C
:100FE0000895883EB0F3813FD1F7F3CFFC018381B0
:100FF0009481892B29F08081918189238F3F11F47D
:1010000080E00895808191810E945A090E94DB0747
:101010000895A5E0B0E0EFE0F8E00C942C312596BF
:10102000E2E00C944831A6E0B0E0E9E1F8E00C948D
:101030002C312696E2E00C94483108950E941D0858
:1010400008950E941E089093A3028093A20208951F
:1010500008950E94210808952091A2023091A302D0
:10106000822B932B0E94210808952091A202309197
:10107000A302822393230E94210808952091A202B3
:101080003091A302822793270E94210808950E948D
:10109000E00208950E9447089093A1028093A00265
:1010A000089590E080E00E944A08089521E030E031
:1010B000A90102C0440F551F8A95E2F7CA010E9498
:1010C0004A08089521E030E002C0220F331F8A95BC
:1010D000E2F78091A0029091A102822B932B0E94B3
:1010E0004A08089521E030E002C0220F331F8A959C
:1010F000E2F7209530958091A0029091A102822381
:1011000093230E944A08089521E030E002C0220F94
:10111000331F8A95E2F78091A0029091A102822765
:1011200093270E944A0808952091A0023091A102BD
:10113000822B932B0E944A0808952091A00230919F
:10114000A102822393230E944A0808952091A002BD
:101150003091A102822793270E944A08089508959A
:10116000262F277091E001C0990F2A95EAF723E016
:10117000769567952A95E1F7660F771F660F771FBB
:10118000FA01E60FF71F50E040E0682F70E0819110
:10119000DF0111979B01042E02C0369527950A9412
:1011A000E2F7217021952827292328272C934F5FC8
:1011B0005F4F4430510559F70895A82FA77023E0D9
:1011C000969587952A95E1F7880F991F880F991FA3
:1011D000FB01E80FF91F50E040E080E0219130E092
:1011E0000A2E02C0369527950A94E2F7217033271C
:1011F000042E01C0220F0A94EAF7822B4F5F5F4F43
:101200004430510559F70895262F943070F48C30EE
:1012100060F4682F70E08CE0989F600D711D1124C0
:1012200048E852E0822F0E94B0080895292F943098
:1012300068F48C3058F490E068E872E03CE0239F5A
:10124000800D911D11240E94DD08089580E008950D
:10125000B0E0A0E0EEE2F9E00C9425317C010091D1
:10126000A0021091A1028091A2029091A302082BEA
:10127000192BCFE0D0E0CC24C394D12CBC2EC601D6
:101280000C2E02C0880F991F0A94E2F78023912345
:10129000892B49F4219790F7B12C8B2DCDB7DEB770
:1012A000E9E00C944131B7018C2F0E94391001976D
:1012B00089F3F3CFCF93DF93EC010E942809BE019D
:1012C0000E943910DF91CF9108951F93CF93DF9340
:1012D000EB0190918702992339F0CB010E945A09C2
:1012E000DF91CF911F910895882369F0CB010E946F
:1012F0002809182F682FCE010E940409BE01812FF2
:101300000E943910EDCFCB010E941609182FF6CF9D
:10131000E1E0F0E0DF0102C0AA0FBB1F6A95E2F72F
:10132000BD01DF0102C0AA0FBB1F4A95E2F7AD0164
:10133000462B572B02C0EE0FFF1F2A95E2F79A01AA
:10134000282339232417350719F48E2B9F2B089552
:10135000E095F0958E239F2308951F93CF93DF93FD
:10136000C091A40216E08091A5028C1304C0DF9105
:10137000CF911F910895D0E01C9FF0011D9FF00DAB
:101380001124EA55FD4F408151816281738184812E
:1013900095810E9413082196C770E5CF4091D6022F
:1013A0005091D7026091D8027091D9028091DA02EF
:1013B0009091DB020E94130808952091A40290915D
:1013C000A50256E0291302C080E0089530E0529F44
:1013D000F001539FF00D1124EA55FD4F71817613F2
:1013E00006C07081781303C07281741304C02F5F2C
:1013F0003F4F2770E7CF81E008951F93CF93DF938E
:101400008091DB02807F09F04BC08091D802882355
:1014100009F446C08091A402C091A5024091D60271
:101420005091D7026091D9027091DA02D42FD5235E
:1014300016E0C817A9F190E061157105A9F1DF3F29
:1014400099F1189FF001199FF00D1124DF01AA55A1
:10145000BD4F11962C911197251326C02C91241362
:1014600023C012962C91129721111EC013962D9114
:101470003C91261B370B283C3105B0F48091DB02F0
:101480008F7080618093DB02E555FD4F80818F7006
:101490008061808386ED92E00E9496070E94AD09EC
:1014A000DF91CF911F91089501968770C2CFA1E17E
:1014B000B0E0EDE5FAE00C9422318C0185E0F80112
:1014C000DE011D9601900D928A95E1F7F801F280F8
:1014D00086EDA82E82E0B82E4091D9025091DA0212
:1014E0004115510509F45AC19091D6022091D702B5
:1014F000892F82238F3F09F451C1C080D18083801E
:101500009480E090D802B401641B750BEE2009F4BE
:10151000F6C08091DB02382F307F683C710508F0FF
:10152000AFC031117AC0EF2C2D1116C09C1114C020
:10153000F11012C08F7080618093DB020E94CE098F
:10154000C5010E9496078091DB02F80185838E2DEC
:101550006196ECE00C943E3181149104C9F18C2D1C
:101560008D218F3FA9F181E08F2580FF05C04F2D90
:101570006D2D8C2D0E94DD098114910459F18C2D63
:101580008D218F3F39F181E08F25F82FF170BF2E2B
:1015900080FF39C04F2D6D2D8C2D0E94DD09A82EA6
:1015A000811131C0CD86DE868D859E850E945A09C7
:1015B000292F22952F70243078F49F702230A8F0C4
:1015C0009923B9F0F8019581907F99F4EA2CBFCF67
:1015D00080E0CBCF80E0D9CF2A5F2F70223068F037
:1015E000C8010E949607AB2CF1CF992311F08823F4
:1015F00069F3805E883050F3F3CF803F38F3815F2A
:10160000833070F7E3CFFF2009F4A1CF8091DB0294
:1016100081608093DB02E12C9ACF2D1105C09C11D3
:1016200003C0FF2009F486C0C8010E94F607882382
:1016300019F1FF2009F18091DB02803270F02091D6
:10164000D6023091D70238872F8319869B868A86E7
:101650008C87CE0107960E94960786E0F801A6EDDA
:10166000B2E001900D928A95E1F70E94FD090E9477
:10167000CE09EE24E3946BCFC8010E949607F9CF00
:10168000311114C0782D998A888AA6016F2D898915
:101690000E94090886ED92E00E94960786E0F50117
:1016A00011928A95E9F70E94CE09B5CF2D110EC08F
:1016B0009C110CC0F1100AC08583C8010E949607D6
:1016C00086E0F50111928A95E9F741CFC8010E94A1
:1016D000F607882389F2FF2079F28091DB028032BD
:1016E00008F4BBCF2091D6023091D7023A832983E8
:1016F0001B829D828C828E83CE010196ACCF683C8A
:10170000710508F03DC0EF2CFF2009F4B5CF2D1175
:1017100029C09C1127C08091DB0280FD1AC0982F40
:10172000907FB9F08583903F31F0982F907F905F44
:101730008F70892B8583C8010E94960786E0F80187
:10174000A6EDB2E001900D928A95E1F70E94CE09D4
:10175000FECE86E0F801A6EDB2E001900D928A95EA
:10176000E1F7F5CEC8010E94F607811176CF80918E
:10177000DB0281608093DB02C8010E949607E7CEFE
:10178000782D998A888AA6016F2D89890E94090877
:1017900086E0F50111928A95E9F7D8CFFF2009F488
:1017A0006BCFC8010E94F607E82E882309F464CFA6
:1017B00086E0F801A6EDB2E001900D928A95E1F77E
:1017C00086ED92E00E944F040E94FD09BFCFACE07D
:1017D000B0E0EDEEFBE00C942B314F835887698726
:1017E0007A878B879C87CE0107960E94570A8823A9
:1017F000B1F08A859B85892B39F04F815885842FDC
:1018000085238F3F09F06CC016E08091A40290916F
:10181000A502891343C02C96E3E00C94473186E07F
:10182000FE013796DE01119601900D928A95E1F73F
:101830008A859B85892B41F38F81988589238F3FEA
:1018400019F32091A50230E0C9010196877099270C
:101850004091A4024817190671F40E94D60710920D
:10186000A5021092A40286E0E6EDF2E0DF011D92EF
:101870008A95E9F7C9CF96E0929FD001939FB00D6A
:101880001124AA55BD4FFE01319601900D929A95F3
:10189000E1F78093A5020E94AD09B6CF819FC001F8
:1018A00011248A559D4F0E94570A882309F4B3CF0B
:1018B000E091A4021E9FF0011124EA55FD4F4081E2
:1018C000518162817381848195810E941308809186
:1018D000A40290E00196877099278093A40295CF87
:1018E00069857A858B859C850E9413088DCF682F2A
:1018F0008091CF019091D0010E94DC280895682F3B
:101900008091CF019091D0010E94DF2808958091AD
:10191000CF019091D0010E94E22808958091E402C5
:1019200085958595859508958091E4028770089541
:101930009091E402977081E009F480E0089580912D
:10194000EF0208959091EF02892B8093EF020895A2
:1019500080959091EF0298239093EF020895109252
:10196000EF0208959091EE02892B8093EE02089584
:1019700080959091EE0298239093EE020895109234
:10198000EE0208958091E502089508950E94C50C25
:10199000089590911C0492FF08C09091E502981759
:1019A00021F08093E5020E94C60C08958091E50223
:1019B000882329F01092E50280E00E94C60C089569
:1019C000CF93DF93E091CF01F091D0018091EF02AE
:1019D0008083E091CF01F091D00180819091EE025F
:1019E000892B80839091E502992381F0E091CF01CA
:1019F000F091D0018081892B80838091CF019091DB
:101A0000D0010E94942881110E94D60CC091CF0170
:101A1000D091D00148E050E06CED72E0CE010E9420
:101A20005331892B59F088E0FE01ACEDB2E0019012
:101A30000D928A95E1F7CE010E943128DF91CF9176
:101A4000089508950E94210D089590911C0492FF1D
:101A500011C098E0899F90011124622B6093E402E9
:101A60000E9462088091E4028595859585950E9483
:101A7000220D08950E94620808951092E40280E009
:101A80000E94220D08959091E4028095892380930D
:101A9000E402282F277091F4282F082E000C330B16
:101AA0009217130659F090911C0492FF07C0859578
:101AB000859585950E9472080E943D0D089590912C
:101AC0001C0492FB222720F9281769F080FB92F969
:101AD00090931C0480911B0490911C040E94A70DFC
:101AE00082E00E94430D089580911C0482FB8827A8
:101AF00080F991E089270E945F0D089581E00E949E
:101B00005F0D089580E00E945F0D08956FEF7FEFF5
:101B100090E080E00E94B531089590E080E00E945E
:101B2000813121E0873E9E4F09F020E0822F089509
:101B300082E090E00E947931089583E090E00E9475
:101B40007931089584E090E00E9481310895BC01CC
:101B500084E090E00E94B5310895AB01BC018FE0B4
:101B600090E00E94A9310895AB01BC0183E190E0AF
:101B70000E94A931089560E070E0CB010E94B40D8D
:101B8000089560E070E0CB010E94AD0D0E94BB0D96
:101B9000089567EE7EEF90E080E00E94B53160E04E
:101BA00082E090E00E94973160E083E090E00E9444
:101BB00097311092A3021092A20260E074E184E0D7
:101BC00090E00E94B53160E086E090E00E9497319D
:101BD0006FEF87E090E00E94973140E050E0BA015B
:101BE00088E090E00E94A93160E08DE090E00E94E2
:101BF000973140E050E0BA0188E190E00E94A931BD
:101C000060E087E190E00E94973140E050E0BA0147
:101C10008CE190E00E94A93170E060E080E290E009
:101C20000E94B53140E050E0BA0188E190E00E94A6
:101C3000A9310E94C10D08950E94C90D0895682F11
:101C40008EE090E00E9497310895A5E0B0E0EBE2CD
:101C5000FEE00C942A310E9493298C018091F002BD
:101C60009091F10280179107A1F08FEF89838A8309
:101C70001B820E9493298160782F9D838C834981E8
:101C80005A816B818D810E941A041093F102009396
:101C9000F0022596E4E00C9446310E949F2960935F
:101CA000FE027093FF028093000390930103609300
:101CB000FA027093FB028093FC029093FD02089558
:101CC000089508950E94610E089508950E94650E7A
:101CD000089581E0089583E291E10E941A280E940C
:101CE000600E0E94620E08950E94690E08950E947F
:101CF000740E0895089508950E947A0E0E947B0E36
:101D000008950E9442110E94EE030E9451240895FA
:101D10000E948A290E941E120E94810E0E94660E55
:101D20000895A5E0B0E0E7E9FEE00C9420310E94C0
:101D3000690E81110CC00E94250E0E9499230E94F9
:101D400052140E9401042596EEE00C943C310E944E
:101D5000341222EF822E22E0922E640110E0F6016E
:101D6000E190F1906F01812F0E9468111F5F143084
:101D700009F450C0E816F90691F38091020381FD41
:101D80000E9471110E94770E682E10E0812F0E9430
:101D900068117C01F401A190B1904F018A159B0557
:101DA00091F1A826BF2400E0CC24C394D12CC50116
:101DB0008C219D21892BF1F077247394C7018C210C
:101DC0009D21892B09F4712C662079F009831A83EF
:101DD0007B820E9493298160782F9D838C83498127
:101DE0005A816B818D810E941A04472D602F812FAB
:101DF0000E94E71F0F5FCC0CDD1C0C30C1F6F40114
:101E00003297F182E0821F5F143009F0BFCF0E9449
:101E10004D0E93CFE816F90609F0AFCF8CCF1F9384
:101E2000CF93DF930E943E10EC01C11580E5D807E7
:101E3000F0F5C11580E4D80708F09CC0C03ED1057C
:101E400020F5CD3CD10508F082C0C83AD10578F420
:101E5000C53AD10508F073C0C130D10519F12097FA
:101E600009F1C430D105F0F4D0E0C0E01BC0C33CA0
:101E7000D105D0F7C85AD0E0CC0FDD1FCA5DDD4FC9
:101E80000990D881C02DD4640DC0C11580E2D80757
:101E900008F0D1C0C11581E0D80708F05AC0C83E8B
:101EA000D10510F7CE01DF91CF911F910895C03673
:101EB00082E5D80718F5C03482E5D80708F06BC072
:101EC000C03282E5D80708F05FC0C11582E5D807A7
:101ED00008F497C02C2F2695269580E2289F900124
:101EE00011248C2F8370C1E0D0E002C0CC0FDD1F25
:101EF0008A95E2F7C22BD32BDD68D4CFC03A82E5B6
:101F0000D80760F4C03882E5D80708F459C0CF710B
:101F1000D0E0DC2FCC27C46FD06AC4CFC03C82E5B0
:101F2000D80708F462C0C03E82E5D80708F09CCF0D
:101F3000DC2FCC27CC27DF71C06FD06AB3CFC55A56
:101F4000D0E0C45ADD4FC881D0E0D064ABCFD065BB
:101F5000A9CF8D2F0E94E010182FCE0199270E9443
:101F60003E10C12FD0E0DC2FCC27CC27DF71C82B4F
:101F7000D92B98CFCE0199270E943E10CC27DF7035
:101F8000C82BD92BD06A8ECFCF71D0E0DC2FCC27D5
:101F9000C16FD06A87CF2C2F26952695277080E2B7
:101FA000289F900111248C2F8370C1E0D0E002C0E3
:101FB000CC0FDD1F8A95E2F7C22BD32BDC6872CFE2
:101FC0002C2F26952695277080E2289F90011124BA
:101FD0008C2F8370C1E0D0E002C0CC0FDD1F8A954A
:101FE000E2F7C22BD32BDA685DCF8C2F8F710E9462
:101FF000E010C82FD0E0DC2FCC27CC27DF71D062D7
:1020000051CF8C2F8F710E94E01055E0D695C79567
:102010005A95E1F7CF70D0E0DC2FCC27282F30E0A5
:1020200084FF05C044E0220F331F4A95E1F7C22B1D
:10203000D32BD06937CF8D2F8F710E94E010182FCE
:10204000CE0199270E943E10C12FD0E0DC2FCC2773
:10205000CC27DF71C82BD92BD2CF462F743030F468
:102060006C3020F4672F0E940203089590E080E016
:1020700008950E942D100E940F0F08958238910537
:10208000B9F1B0F48133910509F47DC048F4893287
:10209000910509F46DC08A32910509F47BC0089559
:1020A0008533910509F45FC08933910509F10895DD
:1020B000833E9105D9F138F4803E910529F1823EA5
:1020C000910579F10895863E9105D9F1873E9105F4
:1020D00009F43EC0843E910541F520911C0421FF86
:1020E00024C080911B0484FD19C087EE90E0089500
:1020F00020911B04237009F05AC020911C0423FF77
:1021000014C089E290E0089520911B0420FD38C09E
:1021100030911C0430FF09C024FF43C090E080E0F0
:10212000089520911B0422FDF7CF089520911B04F0
:1021300022FD3AC030911C0430FD39C024FFF5CF98
:10214000EDCF20911B0423FFF0CF24FDE7CFCDCFAF
:1021500020911B0423FD2EC030911C0431FFEECFD3
:1021600084EE90E0089520911B0425FFDECFC9CFB7
:1021700020911B0425FD21C020911C0423FFD5CFF5
:1021800089E390E0D2CF20911B0426FFCECF8AE2D4
:1021900090E0089520911B0426FFC7CF81E390E0D3
:1021A000089583EE90E0089582EE90E0089580EE29
:1021B00090E0089586EE90E0089585E390E008951C
:1021C00090911B0492FF06C0282F28712830F9F443
:1021D000877F846093FF06C0282F28712831F1F48F
:1021E000877E846120911C0420FF06C0382F38713F
:1021F0003830D9F4877F816021FF06C0282F2871ED
:102200002831D1F4877E816194FD877E0895282F3F
:1022100024712430F9F68B7F8860DCCF282F24715D
:10222000243101F78B7E8861DDCF382F3171313059
:1022300019F78E7F8860E0CF282F2171213121F797
:102240008E7E8861E1CF80E008950E94860D08951A
:102250000E9434122FEF86E791E021508040904099
:10226000E1F700C000000E94341280E00E94681173
:1022700080FF04C00E9425110E94FA2908950E943F
:10228000281108950E948D0D811102C00E941C0E1C
:102290000E94980D809302030E94A20D90931C044B
:1022A00080931B040E943F110E949D0D90E00E94AC
:1022B00029088091A0029091A1020E9447080895E8
:1022C00008950E946011089508950E946411089570
:1022D000E82FF0E0EE0FFF1FEB5DFB4F8081918157
:1022E0000895089580EA8A95F1F7089500C0089549
:1022F0000E9472110895F894E82FE295EF70F0E0D3
:1023000031A1282F2F7081E090E001C0880F2A951D
:10231000EAF7982F9095932391A392A1892B82A3FA
:1023200078940895CF93DF9383E30E947B1182E337
:102330000E947B1186EC0E947B1185E30E947B1139
:10234000CFE5D2E089918F3F11F00E947B1182E0AE
:10235000CB36D807B9F7DF91CF910895AF92BF92EE
:10236000DF92EF92FF920F931F93CF93DF938C0135
:10237000D62EC62FD0E0CE0185599D4F7C01FC01A1
:1023800020812F3F09F44DC0F894E22FE295EF70C1
:10239000F0E031A12F7081E090E001C0880F2A9514
:1023A000EAF7932F982B91A392A18095892382A37A
:1023B00078940E947611EFE5F2E04BE652E021E0DE
:1023C00030E0B12CA12C61916F3FA9F1A62FA2950D
:1023D000AF70B0E090968C9190E06F7002C09595D0
:1023E00087956A95E2F780FD26C0C901A82AB92A17
:1023F000220F331F4E175F0731F7F70180818F3FA0
:1024000011F00E947B1161E0A114B10409F460E0B5
:102410008D2D0E947811CC0FDD1FC00FD11FB98206
:10242000A882DF91CF911F910F91FF90EF90DF90E5
:10243000BF90AF90089590E080E0D8CF0E949211B5
:1024400088E0E5E2F4E0DF01982F1D929A95E9F724
:10245000EDE1F4E0DF011D928A95E9F784E00E9446
:102460006F120E9461110895A8E0B0E0EAE3F2E182
:102470000C9429318E010F5F1F4F88E0F8011192F3
:102480008A95E9F7F12C6F2DC8010E94AE11F394E3
:10249000F4E0FF12F8CF48E050E0B8018DE194E09D
:1024A0000E94533121E0009709F420E0892B41F08C
:1024B00088E0F801ADE1B4E001900D928A95E1F772
:1024C00044E065E274E08DE194E00E947012182F00
:1024D0000E946511812F2896E5E00C9445310895FE
:1024E000CF92DF92EF92FF921F93CF93DF936C0115
:1024F0007B01C42F222349F081E0809305030E94D1
:102500009329909304038093030310910503111101
:102510000AC010E0812FDF91CF911F91FF90EF90C3
:10252000DF90CF90089580910303909104030E945F
:10253000AB29059770F3D0E0CC0FDD1FAE01B601DB
:10254000C7010E945331892B41F0AE01B601C7018A
:102550000E94603110920503DDCF10E0FBCF0E9496
:10256000832B0E94880E0E94902B08950E94952B29
:102570000E94910E0E94AF2B08950E942C290E9468
:10258000692B0E946B0E0E94AF120E94B6120E942D
:102590007C0EFBCF80910C0380FF0DC06091D601B3
:1025A00070E0660F771F6038710570F56115710571
:1025B00069F1862F089581FF07C06091D60184E0FC
:1025C000689FB0011124EFCF6091D60182FD0AC04F
:1025D00080910B038823A9F02091D5016091D60149
:1025E000821710F088E0ECCF869FC001112433E001
:1025F000880F991F3A95E1F7622F70E00E94C13071
:10260000D2CF68E070E0D5CF8FE7089581E00895DC
:1026100080910C0380FF0CC06091D20170E0759531
:102620006795759567956115710549F1862F089530
:1026300081FF06C06091D20170E075956795F3CF78
:102640006091D20182FD0BC090910A039923A1F001
:102650006091D1018091D201961738F0682F70E017
:102660006038710500F38FE70895899FC001112438
:1026700070E00E94C130F4CF61E070E0D7CF81E01C
:1026800008958D3C31F40E94CA1281958093100305
:1026900008958E3C19F40E94CA12F8CF8F3C31F491
:1026A0000E94CA12819580930F030895803D19F40A
:1026B0000E94CA12F8CF893D29F40E940813809322
:1026C000110308958A3D21F40E9408138195F7CFE4
:1026D0008B3D31F40E940813819580931203089575
:1026E0008C3D19F40E940813F8CF9FE2980F9830A0
:1026F00070F4815D990B21E030E001C0220F8A95D2
:10270000EAF780910E03822B80930E0308958D3D8E
:1027100031F480910C03816080930C0308958E3D09
:1027200021F480910C038260F7CF8F3DB9F780913F
:102730000C038460F1CF40910F038D3C59F48091DC
:10274000100387FF0DC01092100341110BC01092AF
:102750000B0308C08E3C81F48091100318169CF383
:10276000442381F08091110390911203892B09F089
:102770005AC010920A0308958F3C49F447FFF0CFE6
:1027800010920F03809110038111ECCFE0CF803DB8
:1027900019F41416ACF3E4CF90911103893D29F498
:1027A0001916F4F610921103DBCF8A3D19F497FF46
:1027B000D7CFF8CF909112038B3D29F497FFD0CF5C
:1027C00010921203CDCF8C3D19F41916CCF3C8CF5B
:1027D0009FE2980F983090F4815D990B21E030E0F2
:1027E000B90102C0660F771F8A95E2F7CB01809589
:1027F00090910E03892380930E03B2CF8D3D31F467
:1028000080910C038E7F80930C03AACF8E3D21F420
:1028100080910C038D7FF7CF8F3D09F0A1CF809180
:102820000C038B7FF0CF08950E9493299C01909117
:102830000F0380911003982B21F03093090320930C
:1028400008039091110380911203982B21F030938B
:102850000703209306038DE093E00E943C2808952F
:1028600086E0EDE0F3E0DF011D928A95E9F7109232
:102870000B0310920A0310920C030895FC0182814D
:1028800081110EC0838181110BC08481811108C028
:1028900091E08581811101C090E0892F81700895B8
:1028A00081E0FCCFA6E0B0E0E8E5F4E10C942B3148
:1028B00086E0EDE0F3E0DE01119601900D928A953D
:1028C000E1F710920F03109210031092110310926F
:1028D00012038B819C81892B89F080910803909150
:1028E00009030E94AB29AC0190910B039923C9F114
:1028F0008091D7018417150608F440C08D819E8110
:10290000892B91F080910603909107030E94AB29D7
:10291000AC0190910A03992309F471C08091D3010D
:102920008417150608F479C0BE016F5F7F4F8DE0F4
:1029300093E00E94E928811105C08DE093E00E9498
:102940003E1481110E94141486E0FE013196ADE020
:10295000B3E001900D928A95E1F72696E3E00C949E
:1029600047312091D8018AE0289F90011124241733
:10297000350720F69F5F90930B0302C09F3FD1F76E
:102980001B81112359F00E94CA129FEF11160CF4FB
:1029900091E0899F802D112480930F031C811123C6
:1029A00059F00E94CA129FEF11160CF491E0899F12
:1029B000802D11248093100330910F03332309F4E9
:1029C0009DCF20911003222309F498CF45EB3403C7
:1029D000C0011124992359F090930F0345EB240370
:1029E00090011124332339F03093100387CF81E015
:1029F00080930F03F3CF81E0809310037FCF20916A
:102A0000D4018AE0289F900111242417350708F08B
:102A10008BCF9F5F90930A0302C09F3FD1F71D8128
:102A2000112359F00E9408139FEF11160CF491E046
:102A3000899F802D1124809311031E81112359F049
:102A40000E9408139FEF11160CF491E0899F802DCE
:102A500011248093120330911103332309F464CFBE
:102A600020911203222309F45FCF45EB3403C00108
:102A70001124992359F09093110345EB24039001FD
:102A80001124332339F0309312034ECF81E0809329
:102A90001103F3CF81E08093120346CFEF92FF92B0
:102AA0000F931F93CF93DF93EB01E82FD1110EC04B
:102AB000442321F0F0E0E451FD4FE4916E2F7E2F8E
:102AC0008E2FCDB7DEB7E6E00C9444310D2F10E029
:102AD000282F30E0442329F024513D4FF90124915F
:102AE00030E0F6E0CF9FC0011124EFEFF0E0BF012E
:102AF0000E94AD30AB018C2F90E0880F991FA5E5A7
:102B0000A49FB001A59F700D1124861B970B982FD1
:102B1000990F980FBF01601B710B629FD001639FDB
:102B2000B00D729FB00D11248B2F9D9FB001112409
:102B3000672F7727EF01C61BD70BBE01629FE0010D
:102B4000639FD00D729FD00D11247F01E91AF10807
:102B5000E09EB001E19E700DF09E700D1124672F74
:102B60007727E61BF70BE29F8001E39F100DF29F92
:102B7000100D1124E12F722F4230510599F048F4C5
:102B80004115510569F04130510581F0EB2F8D2F32
:102B900007C04430510569F080F046305105B1F767
:102BA0006E2F8FCFE22F7B2F812FFACFE22F7D2F39
:102BB000F7CFEB2F822F712FF3CF7B2F822FED2FAB
:102BC000EFCF41E00E944E15089530E020E0869F4F
:102BD000212D969F200D311D1124C9010895AC01AE
:102BE0008230910508F408959FEF413E8EE1580729
:102BF00040F49A0195E0369527959A95E1F798E08B
:102C0000920F61E0E62FE90FFF27FF1F9F01359527
:102C10002795822F229FF001239FF00DF00D1124A4
:102C20004E175F0738F49FEF920F961758F78FEF04
:102C3000860F08952F3FE9F361E0620FF6CF4091D0
:102C4000DF015091E00125E038E0429FC001439F41
:102C5000900D529F900D1124875E994C9093E00146
:102C60008093DF01890F0895E82F86FDE0952E2FD0
:102C70002F7086FD2F5FE695E695E695E670F0E00D
:102C8000E159FD4F9181929F902D212D1124929514
:102C90009F702295207F922B2081920F87FD919526
:102CA00080E8890F0895E42FF0E0EE0FFF1FE05D4C
:102CB000FE4F408134EE439F412D1124E72FF0E079
:102CC00050E0445E5F4FDA01A21BB1099D01B7FFDE
:102CD00003C031952195310993E0220F331F9A9556
:102CE000E1F7AF01421B530B9A0157FD20E0279FEC
:102CF000212D1124722F0895E42FF0E0EE0FFF1F15
:102D0000E05DFE4F408134EE439F412D1124E82FBA
:102D1000F0E050E0445E5F4FDA01A21BB1099D0173
:102D2000B7FF03C031952195310993E0220F331F7E
:102D30009A95E1F7AF01421B530B9A0157FD20E032
:102D4000582F259F212D1124822F0895622F089539
:102D5000E42FF0E0EE0FFF1FE05DFE4F6081621B8D
:102D60000895E42FF0E0EE0FFF1FE050FF4F61A940
:102D7000621B0895322F50E0FA01EE0FFF1FE05062
:102D8000FF4F91A9905297FD9195440F551FFA015D
:102D9000E05DFE4F2081231B330B290F311D97FD72
:102DA0003A95620F0895EF920F93972F23E0029FB9
:102DB000B0011124759567956E0D792F0F91EF90E5
:102DC00008950F93CF93DF93D72FC82F47FD4195D9
:102DD00088E390E0841B910947FD9395889FB0019B
:102DE000899F700D700D1124229FC001239F900DAB
:102DF000900D1124860F971F0E94EF15982F990FA1
:102E0000890F682F600F7D2F8C2FDF91CF910F914D
:102E100008950F931F93522F10E0F801EE0FFF1F3C
:102E2000E050FF4FA1A9A052BB0B9D015203F0013E
:102E3000539FF00D1124000F111FD801A05DBE4F4C
:102E40000C910057110B40039001419F300D11244C
:102E50002E0F3F1F37FF02C021583F4F220F232F55
:102E6000221F330B620F1F910F9108950F931F9331
:102E7000522F10E0F801EE0FFF1FE050FF4FA1A905
:102E8000A052BB0B9D015203F001539FF00D112482
:102E9000000F111FD801A05DBE4F0C910057110B00
:102EA00040039001419F300D11242E0F3F1F37FF2B
:102EB00002C0215C3F4F96E0359527959A95E1F742
:102EC000620F1F910F9108950F931F9310E0F80167
:102ED000EE0FFF1FE05DFE4F9081905797FD91959B
:102EE000000F111FF801E050FF4F01A90052110B14
:102EF0002003F001219FF00D112408E310E0091BCD
:102F0000110997FD139540039001419F300D112445
:102F1000E20FF31F9F01220F331F2E0F3F1F37FFBA
:102F200002C021583F4F220F232F221F330B620F65
:102F30001F910F9108950F931F93CF93DF938B01F0
:102F4000D82FC42F822F0E943416EC2FF0E0EE0F02
:102F5000FF1FE05DFE4F90819058890F87FD81959E
:102F6000880F682F2CE0629F612D1124600F712F54
:102F70008D2FDF91CF911F910F910895E42FF0E0F5
:102F8000EE0FFF1FE05DFE4F9081921B97FD919524
:102F9000292F38E1239F212D1124620F08952091BC
:102FA000310430E1230F08F42FEF60E1822F90E02D
:102FB0000E94E515BC0188EB9BE00E94AD3090E0DB
:102FC00080E008954095282F429F412D1124842FA1
:102FD000089522E8241B08F420E0620F0895EF9280
:102FE000FF920F93970195E0099F200D311D112449
:102FF0002F3F310519F010F02FEF30E02095382FDA
:10300000320F08F43FEF832F0F91FF90EF90089558
:10301000EF92FF920F931F930E0D1F2D111DF901BB
:1030200037FF03C0F195E195F10924E0EE0FFF1F92
:103030002A95E1F7EF3FF10519F014F0EFEFF0E01A
:103040009A0157FF03C031952195310994E0220F71
:10305000331F9A95E1F72E173F070CF4F901E00FA3
:10306000F11FEF3FF10519F010F0EFEFF0E0E09500
:10307000282F3E2F230F08F42FEF822F1F910F913F
:10308000FF90EF900895EF92FF920F93972F0934DE
:1030900038F4B701601B71096F3F710519F010F02A
:1030A0006FEF70E0485F5F4F4131510540F0A9017B
:1030B000485F5F4F4131510510F06FEF70E0609550
:1030C000482F460F08F44FEF842F37FF02C02D5FC3
:1030D0003F4F359527953595279560912E04620FC2
:1030E000792F0F91FF90EF900895EF92FF920F9339
:1030F0009701201B31092F3F310519F010F02FEFF8
:1031000030E0322F3095482F430F08F44FEF842FD3
:10311000620F0F91FF90EF900895EF92FF920F933F
:103120009701201B31092F3F310519F010F02FEFC7
:1031300030E02095382F320F08F43FEF832F0F91A6
:10314000FF90EF9008959091D603892B8093D6033A
:103150000895FC019B01009729F480E077FF2BC0C4
:1031600080E80895AC0197FF04C044275527481B09
:10317000590BB901640F751F37FD10C0241B350BA7
:10318000C901A5E0880F991FAA95E1F70E94C130F7
:1031900080E2861BF7FF0FC081950895CB0165E0A3
:1031A000880F991F6A95E1F7BA01621B730B0E94A1
:1031B000C13080E6EECF08950F931F93CF93DF9336
:1031C000D62F172FC82FC901272F201B022FBA0176
:1031D0000E94A918982F990F990F782F791B700FBB
:1031E000719F712D11246D2F8C2FDF91CF911F9125
:1031F0000F9108950F931F93CF93DF93D62FC72F6F
:10320000182FC901212F201B022FBA010E94A918D3
:10321000982F990F990F891B800F282F219F212DFF
:103220001124822F6D2F7C2FDF91CF911F910F9151
:103230000895EF920F931F93CF93DF93D62F172FFD
:10324000C82FC9010E19070FBA010E94A918702FC3
:10325000781B719F712D11246D2F8C2FDF91CF91D1
:103260001F910F91EF900895EF920F931F93CF93BB
:10327000DF93D62FC72F182FC9010E19010FBA01DE
:103280000E94A918081B202F219F212D1124822F75
:103290006D2F7C2FDF91CF911F910F91EF900895AB
:1032A0000F93CF93DF93D72FC82FC901BA010E9484
:1032B000A918682F600F7D2F8C2FDF91CF910F9170
:1032C0000895EF920F93CF93DF93D72FC82FC901A3
:1032D0000E19BA010E94A918602F681B7D2F8C2F30
:1032E000DF91CF910F91EF90089546E050E06CE1AF
:1032F00070E08DE294E00E9487311092D603089529
:103300000E94E1150895EDE2F4E085E38083809169
:10331000EA019091EB01A091EC0181839283A38358
:103320008FE784838FEF85830E947519089580E06D
:1033300008950F931F93CF93DF93C82FD62F8A0141
:103340000E9497199CE0C99FB001112460507F4FE3
:103350006D0F711DFB0190819F3F29F0F801E80F6F
:10336000F11D90838F5FDF91CF911F910F91089591
:10337000E0917D02F0917E0209950895E091790235
:10338000F0917A0209950895B0E0A0E0EAECF9E145
:103390000C941D313C012B01FC01C0818BE0C89FC6
:1033A000C02D11241BE01C0FF12E163310F035E355
:1033B000F32E60913104669580913304909134042A
:1033C0000E94E515382ED0E0CE01880F991F9C0190
:1033D00020503F4F6901CF1548F081E0153308F0C8
:1033E00080E0CDB7DEB7E1E10C943931FE01E6565D
:1033F000FE4F8081F3019181892379F1F60180A943
:10340000282F2057330B590181A9E82FE052FF0BD9
:103410004F01AA9C9001AB9C300D300D1124EE9F02
:10342000C001EF9F900D900D1124820F931F0E94F9
:10343000EF15082F60912E0470912F0480913004B5
:10344000E32C9401A501F20109950E948019462FF1
:10345000282F672FCE010E94BE19F2E0CF0ED11C9B
:103460002196B9CF69E179E10E94C419089564E316
:1034700079E10E94C419089563ED76E10E94C419B0
:10348000089561E679E10E94C4190895B0E0A0E0D2
:10349000ECE4FAE10C9422315C016B01FC01C08187
:1034A0008BE0C89FC02D11241BE01C0F912E1633FA
:1034B00010F035E3932E60913104669580913304CA
:1034C000909134040E94E515882ED0E0CE01880F3B
:1034D000991F9C0120503F4F7901C91548F081E0A8
:1034E000153308F080E0CDB7DEB7ECE00C943E3148
:1034F000FE01E656FE4F8081F50191818923C1F0DE
:10350000F70121A92052330B40A94057550B609178
:103510002E0470912F0480913004082DF601099536
:103520000E948019462F282F672FCE010E94BE19B6
:10353000F2E0EF0EF11C2196D0CF6CED78E10E9405
:10354000461A08956AEF78E10E94461A089561EEDE
:1035500076E10E94461A089560E579E10E94461AD4
:103560000895B0E0A0E0E7EBFAE10C9425317C018E
:103570008B01FC01C0818BE0C89FC02D11249BE012
:10358000D92EDC0ECD2CF5E3FD1510F485E3C82E05
:10359000609131046695669521E0620F08F46FEF43
:1035A00080913304909134040E94E515B82ED0E048
:1035B000CC1550F081E094E39D1508F480E0CDB780
:1035C000DEB7E9E00C944131FE01E656FE4F808102
:1035D000F7019181892391F060912E0470912F045D
:1035E000809130042B2D4C2FF80109950E948019F1
:1035F000462F282F672FCE010E94BE192196D8CFC3
:1036000063E576E10E94B11A08956CE776E10E94C5
:10361000B11A089566EA76E10E94B11A089568EA3F
:1036200076E10E94B11A089561EB76E10E94B11A29
:1036300008956AEB76E10E94B11A08956BE977E18B
:103640000E94B11A08956EEB77E10E94B11A0895B5
:10365000B0E0A0E0EEE2FBE10C9421315C016B01F3
:10366000FC01C0818BE0C89FC02D11241BE01C0F02
:10367000912E163310F035E3932E60913104669548
:10368000669580913304909134040E94E515F82EDC
:1036900080E48F0D0E94341690E8892E880E8F2DBD
:1036A0000E94341620E8722E780ED0E0C91548F03A
:1036B00081E0153308F080E0CDB7DEB7EDE00C9483
:1036C0003D31FE01E656FE4F8081F501918189234F
:1036D000A1F060912E0470912F0480913004EF2CA2
:1036E0000C2F272D482DF60109950E948019462F91
:1036F000282F672FCE010E94BE192196D7CF69E0EF
:1037000077E10E94281B089566E377E10E94281B59
:10371000089564E677E10E94281B0895B0E0A0E0D8
:10372000E4E9FBE10C9424318C017B01FC01C081B4
:103730008BE0C89FC02D11242BE0B22EBC0EAB2C09
:10374000F5E3FB1510F495E3A92E2091310431E047
:10375000230F08F42FEF30E050E040E06FEF7FEFF1
:1037600080E090E00E94F7306901D0E02C2FCA156C
:1037700050F081E0F4E3FB1508F480E0CDB7DEB74C
:10378000EAE00C944031FE01E656FE4F8081F801DC
:103790009181892311F1409137044150042E000C8E
:1037A000550B47FF1CC0C6016091310421E0620F38
:1037B00008F46FEF0E94E515AC0160912E04709142
:1037C0002F0480913004F70109950E948019462F3B
:1037D000282F672FCE010E94BE192196C7CFFA016C
:1037E000E95CFB4F818982130AC0FA01EE0FFF1FCB
:1037F000E95CFB4F818D928D8C159D05A8F241509F
:103800005109CFCF62EE77E10E948E1B089569EED9
:1038100077E10E948E1B0895ABE0B0E0E2E1FCE1AD
:103820000C941C318C832B015F834E83FB01F08150
:103830008BE0F89F802D11248983855F8A838B8399
:10384000863310F025E32B83309137043D83998133
:10385000892F90E09B878A87880F991FFC01E05091
:10386000FF4F6F01FC818F2F90E09C012F5F3F4F36
:1038700039872887EB81FA85FE1748F081E02A8195
:10388000253308F080E02B96E2E10C943831EA858C
:10389000FB85E656FE4F8081F2019181892301F17B
:1038A00020902E0430902F0428853985295C3B4FC9
:1038B00039013C81398310E029813D812317C8F00B
:1038C00020913004129F112D1124B101812F0E94EB
:1038D0008019462F282F672F8A859B850E94BE1945
:1038E0008A859B8501969B878A8792E0C90ED11CA9
:1038F000C1CFF30181913F01F601A0A8A81ABB082E
:1039000081A8F3018781881A9908AA9C9001AB9C31
:10391000300D300D1124889CC001899C900D900DB4
:103920001124820F931F0E94EF15082F609131041C
:1039300021E0620F08F46FEFF301EE0FFF1FE75372
:10394000F440858996890E94E5157C019401A501C2
:10395000B101812FEE81FF8109951B01F981FF5F84
:10396000F983182FA9CF2091370431E0231B08F4E5
:1039700020E04FEE57E1BC01822F0E940C1C0895FD
:103980004FEE57E1BC0180E00E940C1C089520918D
:10399000370431E0231B08F420E048E058E1BC0183
:1039A000822F0E940C1C089548E058E1BC0180E081
:1039B0000E940C1C08952091370431E0231B08F469
:1039C00020E043E458E1BC01822F0E940C1C0895C2
:1039D00043E458E1BC0180E00E940C1C0895209152
:1039E000370431E0231B08F420E045E758E1BC012F
:1039F000822F0E940C1C089545E758E1BC0180E02D
:103A00000E940C1C08952091370431E0231B08F418
:103A100020E04DE858E1BC01822F0E940C1C089563
:103A20004DE858E1BC0180E00E940C1C0895B0E014
:103A3000A0E0EDE1FDE10C9425317C01FC01C081A9
:103A40008BE0C89FC02D11241BE01C0F012F1633E3
:103A500008F005E360912E0470912F0480913004EA
:103A60000E948019D62EC72EB82ED0E0C01748F07D
:103A700081E0153308F080E0CDB7DEB7E9E00C94C3
:103A80004131FE01E656FE4F8081F7019181892385
:103A900031F02B2D4D2D6C2DCE010E94BE1921969B
:103AA000E5CFB0E0A0E0E7E5FDE10C9422317C0138
:103AB000FC01C0818BE0C89FC02D11241BE01C0FAE
:103AC000012F163308F005E3C0902F04D090300486
:103AD000D0912E046D2F7C2D8D2D0E948019B62E35
:103AE000A72E982E609131046D0F7C2D8D2D0E9494
:103AF0008019D62EC72E882ED0E0C01748F081E05E
:103B0000153308F080E0CDB7DEB7ECE00C943E3121
:103B1000FE01E656FE4F9081F7018181892359F01D
:103B2000282D4D2D6C2D90FD03C0292D4B2D6A2D78
:103B3000CE010E94BE192196E0CFB0E0A0E0E3EAFA
:103B4000FDE10C9425317C01FC01C0818BE0C89F14
:103B5000C02D11241BE01C0FD12E163310F095E35D
:103B6000D92EC0902F04B09030042091310400E48D
:103B7000029F012D1124D0E0CD1548F081E01533CE
:103B800008F080E0CDB7DEB7E9E00C944131FE01EA
:103B9000E656FE4F8081F70191818923B9F0FE013D
:103BA000EE0FFF1FE050FF4F81A982958F7060914B
:103BB0002E04809F600D11247C2D8B2D0E94801976
:103BC000462F282F672FCE010E94BE192196D4CFF1
:103BD000B0E0A0E0EEEEFDE10C9425318C01FC019B
:103BE000C0818BE0C89FC02D11245BE0F52EFC0E38
:103BF000DF2CF5E3FF1510F445E3D42EC0902F041D
:103C0000B09030042091310430E4E32E3E2D329FF9
:103C1000312D1124E32ED0E0CD1550F081E034E3B6
:103C20003F1508F480E0CDB7DEB7E9E00C944131F0
:103C3000FE01E656FE4F8081F80191818923D9F07B
:103C4000FE01EE0FFF1FE050FF4F60A9E69EB0019E
:103C5000112495E0759567959A95E1F780912E046A
:103C6000680F7C2D8B2D0E948019462F282F672FDF
:103C7000CE010E94BE192196CFCFB0E0A0E0E3E4D0
:103C8000FEE10C9425318C01FC01C0818BE0C89FC2
:103C9000C02D11249BE0F92EFC0EEF2CF5E3FF154F
:103CA00010F485E3E82ED0902E04D0912F04C0901C
:103CB0003004609131046695669566958091330471
:103CC000909134040E94E5150E943416805887FDB7
:103CD0008195880F282F3C2D239F212D1124822F81
:103CE0006D2D7D2F0E948019D62EC72EB82ED0E0C4
:103CF000CE1550F081E024E32F1508F480E0CDB715
:103D0000DEB7E9E00C944131FE01E656FE4F8081BA
:103D1000F8019181892331F02B2D4D2D6C2DCE0191
:103D20000E94BE192196E4CFB0E0A0E0EAE9FEE1EE
:103D30000C9427318C01FC01E656FE4F80816823EC
:103D400049F1D0902F04D0913004C0912E04EC2E74
:103D5000F12C0E941F16282FC7018C549F4F68E634
:103D600071E00E94C1308E199F0997FD03969595C9
:103D700087959595879523706C2F289F600D11244A
:103D80007D2D8D2F0E948019462F282F672FC80167
:103D90000E94BE19CDB7DEB7E7E00C944331B0E026
:103DA000A0E0E5EDFEE10C9427317C01FC01C0812F
:103DB0008BE0C89FC02D11248BE0D82EDC0E8281B1
:103DC000811128C06091310420E1620F08F46FEF87
:103DD00080913304909134040E94E5156AE070E00C
:103DE0000E94AD30892B61F40E941F16F5E38F9F6E
:103DF000C0011124F7016181892F90E00E94941E77
:103E000081E0F4E3FD1508F480E0CDB7DEB7E7E02C
:103E10000C9443310D2DF5E3FD1508F405E3D0E0D6
:103E200010E0C017D10764F7F7016181CE010E944D
:103E3000941E2196F6CF1F93CF93DF93EC01FC01E4
:103E4000E656FE4F80816823B1F00E941F16182F9E
:103E50000E941F1620E8829FC00111247FE7790F7E
:103E6000612F809130040E948019462F282F672FE0
:103E7000CE010E94BE19DF91CF911F910895B0E04D
:103E8000A0E0E5E4FFE10C9427318C01FC01C28144
:103E9000C11124C06091310420E1620F08F46FEF7A
:103EA00080913304909134040E94E51565E070E040
:103EB0000E94AD30892B61F40E941F16F5E38F9F9D
:103EC000C0011124F8016181892F90E00E941B1F1D
:103ED0008C2FCDB7DEB7E7E00C944331C0818BE087
:103EE000C89FC02D11248BE0D82EDC0E8D2DF5E35C
:103EF000FD1508F485E3D0E0E82EF12CCE15DF05A2
:103F000034F0C1E0F4E3FD1518F7C0E0E1CFF801AB
:103F10006181CE010E941B1F2196F0CFB0E0A0E08E
:103F2000E4E9FFE10C9425317C01FC01C0818BE0C8
:103F3000C89FC02D11241BE01C0F012F163308F061
:103F400005E3C0902F04D0903004D0912E046091EE
:103F5000310466956695669580913304909134049A
:103F60000E94E5150E943416805887FD8195880FC0
:103F7000682F2CE0629F612D11246D0F7C2D8D2DFB
:103F80000E94E115D62EC72EB82ED0E0C01748F0FB
:103F900081E0153308F080E0CDB7DEB7E9E00C949E
:103FA0004131FE01E656FE4F8081F7019181892360
:103FB00031F02B2D4D2D6C2DCE010E94BE19219676
:103FC000E5CFE0917B02F0917C0209950895CF92B4
:103FD000DF92FF920F931F93CF93DF93CDB7DEB79E
:103FE00028970FB6F894DEBF0FBECDBF182F062F4F
:103FF000F42E0E94740E882309F44CC0FF2009F4AB
:1040000057C0AE014F5F5F4F602F812F0E949919FB
:10401000F82E0F2D10E08091D703800F912F911D66
:1040200009976CF188E090E06C01C01AD10AB801E0
:1040300068527C4FA60188ED93E00E946031B80180
:1040400060527C4FA60180EE93E00E946031A60191
:10405000440F551FB801660F771F60517C4F80EFEA
:1040600093E00E946031B80168517C4FA60188EE50
:1040700093E00E94603188E08F198093D7031091FC
:10408000D703DE01119640E0842F810FF41212C095
:104090008093D70328960FB6F894DEBF0FBECDBF2E
:1040A000DF91CF911F910F91FF90DF90CF900895F6
:1040B000F12CAFCF5D91252F30E090E0BC0169522B
:1040C0007C4FF901EE0FFF1FE05DFE4F0081FB0109
:1040D0000183220F331FF901E050FF4F21A9FB019B
:1040E0002187518B880F991FFC01E952FC4F128EDA
:1040F000118E4F5FC9CFB0E0A0E0E1E8F0E20C9490
:104100001C31782E8091DD01871124C090912D04FF
:1041100093702091DE0130E081E09217130609F4DC
:1041200080E081708093DC01809132049091DB010A
:10413000981739F08093DB0140E060E080E00E9456
:10414000E11F2AE2271588F0E72DF0E0E753FE4C47
:104150000C94163181E0E5CF8091DC01882359F081
:1041600040E060E080E00E94E11F80E004C08AED52
:1041700091E00E94171D9091DA019F5F9093DA0100
:1041800081110CC082E08093D9018091DC01811102
:1041900005C0711003C083E08093D901CDB7DEB7AD
:1041A000E2E10C9438318AED91E00E94511DE3CF99
:1041B0008AED91E00E949D1DDECF8AED91E00E9484
:1041C000E81DD9CF8AED91E00E943D1ED4CF8AED43
:1041D00091E00E94001BCFCF8AED91E00E94051B69
:1041E000CACF8AED91E00E949D1AC5CF8AED91E079
:1041F0000E94A21AC0CF8AED91E00E94321ABBCF72
:104200008AED91E00E94371AB6CF8AED91E00E94C4
:104210000A1BB1CF8AED91E00E940F1BACCF8AED53
:1042200091E00E94141BA7CF8AED91E00E94191B18
:10423000A2CF8AED91E00E943C1A9DCF8AED91E0D9
:104240000E94A71A98CF8AED91E00E94AC1A93CFF2
:104250008AED91E00E94411A8ECF8AED91E00E9492
:104260007F1B89CF8AED91E00E94841B84CF8AED69
:1042700091E00E94891B7FCF8AED91E00E94CF1EC2
:104280007ACF8AED91E00E943F1F75CF8AED91E0D1
:104290000E948E1F70CF8AED91E00E941E1B6BCF93
:1042A0008AED91E00E94231B66CF9091DA011BE01A
:1042B000919F100D1124409133045091340460916A
:1042C0003504709136048091D2039091D303A0916C
:1042D000D403B091D50384179507A607B70708F054
:1042E00052C00E941F1695E3899FE0011124CD2F33
:1042F000DD27FE01E656FE4F80819091DB01892388
:1043000009F441C00E941F1620E040E060E081FDFA
:1043100013C00E941F16082F0E941F16E0E88E9FF0
:10432000C00111247FE7790F602F809130040E9433
:104330008019462F282F672FCE010E94BE19209189
:10434000310430E1230F08F42FEF60E1822F90E079
:104350000E94E515BC0184EF91E00E94AD30809190
:10436000330490913404A0913504B0913604860F43
:10437000971FA11DB11D8093D2039093D303A093E7
:10438000D403B093D50381E0153308F4F4CEEDCE19
:104390004091CE035091CF036091D0037091D1032F
:1043A0008091330490913404A0913504B091360487
:1043B00084179507A607B70708F4D7CE8091DC01CC
:1043C00081114AC0C091DA018BE0C89FC02D112431
:1043D0004BE0F42EFC0EEF2CF5E3FF1510F435E363
:1043E000E32E0C2F10E023E0C29FE0011124C15DF9
:1043F000DC4F0E1508F466C0F4E381E0FF1508F009
:10440000BACEEFE2F3E08BEC93E08E179F0709F052
:104410006BC00E941F1681FF6EC01092CB031092DA
:10442000CC031092CD030E94CF170091330410915A
:1044300034042091350430913604DC01CB01800F27
:10444000911FA21FB31F8093CE039093CF03A0931D
:10445000D003B093D10389CE40E060E080E00E94B9
:10446000E11F0FE213E0D0E0C0E00E941F1681FFC1
:104470000BC0F80110821182128221960D5F1F4F2E
:10448000C533D10591F79ECF0E941F16D82E0E94EA
:104490001F16F0E88F9FC00111247FE7790F7E017E
:1044A000EE0CFF1CEC0EFD1EC701815D9C4F7C01D4
:1044B0006D2D809130040E94E115F70160837183B6
:1044C0008283DBCFF801E656FE4F80819091DB01BD
:1044D000892331F02A8148816981C8010E94BE196F
:1044E00023960F5F1F4F85CF238134814581219310
:1044F000319341938ACF0E941F16C82F0E941F1626
:1045000020E8829FC00111247FE7790F6C2F8091F2
:1045100030040E94E1156093CB037093CC03809329
:10452000CD0381CF8091DC01882329F040E060E059
:1045300080E00E94E11F9091DA018BE0282E989F85
:10454000200C1124409133045091340460913504BF
:104550007091360480912B0390912C03A0912D0330
:10456000B0912E0384179507A607B70708F072C00D
:1045700060912E0470912F04809130040E94801964
:10458000662E572E482E03E113E0C0E0D1E090E301
:10459000892E91E0992E6E015E01780185E0382E1A
:1045A000F50181915F0190E0F7012081222309F458
:1045B00057C0242D462D652D0E94BE19F601838516
:1045C000242D462D652D90E00E94BE19F7018181B2
:1045D00081937F013A94F1E0CF1AD1083110E0CFF6
:1045E0008D8190E0F8012581222309F444C0242D17
:1045F000462D652D0E94BE198E81242D462D652DD8
:1046000090E00E94BE190E941F16837091E009F08D
:1046100090E0F80195830A5F1F4F2C968C169D063B
:1046200009F0B9CF0E94CF170091330410913404E0
:104630002091350430913604DC01CB01800F911FAD
:10464000A21FB31F80932B0390932C03A0932D03E1
:10465000B0932E0381E0F4E3F21508F08CCD85CD04
:1046600020E040E060E00E94BE19F601838520E072
:1046700040E060E0A8CF20E040E060E00E94BE198A
:104680008E8120E040E060E0BBCF8AED91E00E94A7
:10469000021C71CD8AED91E00E94071C6CCD8AED61
:1046A00091E00E94B31C67CD8AED91E00E94C01C8E
:1046B00062CD8AED91E00E94C71C5DCD8AED91E04C
:1046C0000E94D41C58CD8AED91E00E94DB1C53CD92
:1046D0008AED91E00E94E81C4ECD8AED91E00E94A7
:1046E000EF1C49CD8AED91E00E94FC1C44CD8AED7F
:1046F00091E00E94031D3FCD8AED91E00E94101DC4
:104700003ACD81E008950E948123089581E00895C3
:104710000E9486230895FC0180819BE0899F802D63
:104720001124682F863308F065E38B500E9488239C
:1047300008954F925F926F927F928F929F92AF9265
:10474000BF92CF92DF92EF92FF92CF9360910004DD
:104750007091010480910204909103040E94BA298F
:104760006B017C010E949F294B015C018092000437
:1047700090920104A0920204B0920304A091D70386
:10478000E7EDF3E08A2F90E04FEF5FEF60E070E03D
:104790004C195D096E097F09A9132AC08093D703BC
:1047A00080910404C0E0811108C080912D04C82FBD
:1047B000C37019F0C82FC695C6958091D901813074
:1047C00009F440C0882339F1823009F447C08330AE
:1047D00009F44FC0CF91FF90EF90DF90CF90BF9042
:1047E000AF909F908F907F906F905F904F900895C3
:1047F000218D328D2901712C612C441555056605DA
:10480000770520F481509F5F3296C6CF2C0D3D1D59
:10481000328F218FF8CF1092DA0180923304909278
:104820003404A0923504B092360489E2E7EDF3E057
:10483000A7E3B4E001900D928A95E1F781E08093BF
:10484000D901C8CF8C2F0E947B20CC2319F20E9463
:1048500083238AED91E00E948B23BCCFC093DD01BE
:1048600080912D0483708093DE010E94B81983E04B
:10487000E6CF8091D60381110E94751960913304AF
:104880007091340480913504909136040E94BA29C5
:10489000603171058105910508F49CCF1092D90112
:1048A00099CFE0917702F091780209951092370440
:1048B0008FEF9FEF90935104809350049093530493
:1048C000809352049093550480935404909357041A
:1048D00080935604909359048093580490935B04FA
:1048E00080935A0490935D0480935C0490935F04DA
:1048F00080935E041092D7039093F1038093F003AA
:104900009093F3038093F2039093F5038093F40361
:104910009093F7038093F6039093F9038093F80341
:104920009093FB038093FA039093FD038093FC0321
:104930009093FF038093FE030E948D0D811104C0AC
:104940000E941C0E0E94831981E08093D60346E0EA
:1049500050E06CE170E08DE294E00E9469311092C9
:10496000D60380912D048C7F11F40E948319089541
:10497000CF93C82F882391F08091040481110EC039
:104980000E947B201092DD0180912D048370809322
:10499000DE010E94B81983E08093D901C09304041A
:1049A000CF910895EDE2F4E0908121E09227908389
:1049B0001092D9010E94A318089581E00E94D22488
:1049C000089590912D04937051F0811109C0946065
:1049D00090932D041092D901862F0E94A318089558
:1049E0008B3210F0986AF4CF282F220F220F922BCF
:1049F000EFCF61E00E94E1240895682F90912D048B
:104A00009695969581E0890F8B3208F081E00E949F
:104A1000E124089581E00E94FD240895682F90917B
:104A20002D04969596958FEF890F09F48AE20E94DE
:104A3000E124089581E00E940E25089590912D04AF
:104A4000937061F080932E0460932F04453B08F02F
:104A500044EB40933004822F0E94A3180895ADE2E6
:104A6000B4E01196EC911197F0E0282F13964C9139
:104A7000139712966C91CF0108960E941E250895F7
:104A800081E00E942F250895EDE2F4E09181282F26
:104A900043816281E92FE850FF0BCF010E941E2560
:104AA000089581E00E9444250895EDE2F4E06281DA
:104AB00020E1620F08F46FEF9181282F4381892F45
:104AC00090E00E941E25089581E00E9455250895DA
:104AD000EDE2F4E0628120E1621B08F460E0918184
:104AE000282F4381892F90E00E941E25089581E0A0
:104AF0000E9468250895EDE2F4E0438120E1420F31
:104B000008F44FEF9181282F6281892F90E00E9455
:104B10001E25089581E00E947B250895EDE2F4E0D2
:104B2000438120E1421B08F440E09181282F6281FB
:104B3000892F90E00E941E25089581E00E948E2515
:104B40000895EDE2F4E0248130E1230F08F42FEF23
:104B500024830E94A318089581E00E94A12508954E
:104B6000EDE2F4E0248130E1231B08F420E024830B
:104B70000E94A318089581E00E94B0250895089529
:104B8000FC01EE0FFF1FE80FF91FE05AFB4F618396
:104B9000408322830895E0E6F4E0818360834283CA
:104BA000339694E0EF3FF907C1F7089565E370E0AD
:104BB00080E694E00E9440260895FA01811101C028
:104BC000FB01099508951F93CF93DF93EC01FB013F
:104BD0001281111110C00E949F0C8272FE01E052DE
:104BE000F847E531F10508F049C0EC50FE4C0C9453
:104BF00016310E94DD24812FDF91CF911F910895FE
:104C00004AE155E26AE075E20E94DD25F4CF4AE010
:104C100055E26AE175E2F8CF41E555E260E475E2FC
:104C2000F3CF40E455E261E575E2EECF47E755E2A8
:104C300064E675E2E9CF44E655E267E775E2E4CF62
:104C40004DE955E26AE875E2DFCF4AE855E26DE9E1
:104C500075E2DACF4BEB55E26CEA75E2D5CF4CEA60
:104C600055E26BEB75E2D0CF81E00E94F924C3CF0F
:104C700085E0FBCF8DE0F9CF82E1F7CF11E0BBCF2C
:104C80006A9A4EB14B7F5EB15460EFB7F8949B01C6
:104C9000220F331F260F371F280F391F28173907F8
:104CA00041F4EFBF8FE594E00197F1F700C00000F9
:104CB0000895DC016D91CD0178E05EB9000000C07F
:104CC00067FF4EB9660F000000C000C000C04EB9BB
:104CD00000C07A9591F7E2CFCF93DF93EC01FB010F
:104CE0008281882309F4D2C09E01305723323105D6
:104CF00008F0B2C00E94A20D90931C0480931B0484
:104D0000FE01E150F047E232F10520F4E75FFD4C8F
:104D10000C94163180911B04816080931B0493C016
:104D200080911C04886080931C048DC080911B04BA
:104D30008260F3CF80911B048460EFCF80911B04CD
:104D40008860EBCF80911C048160EDCF80911C04C2
:104D50008260E9CF80911B048061DFCF80911B04CA
:104D60008062DBCF80911B048064D7CF0E94D6077E
:104D700080911B048068D1CF80911B048C60CDCFC3
:104D800080911C048360CFCF80911B048E7FC5CFA0
:104D900080911C04877FC7CF80911B048D7FBDCF7E
:104DA00080911B048B7FB9CF80911B04877FB5CF87
:104DB00080911C048E7FB7CF80911C048D7FB3CF70
:104DC00080911B048F7EA9CF80911B048F7DA5CF7E
:104DD00080911B048F7BA1CF0E94D60780911B047A
:104DE0008F779BCF80911B04837F97CF80911C048A
:104DF0008C7F99CF80911B0482FB992790F921E049
:104E0000922790FB82F990FB83F987CF80911C0455
:104E1000982F909591708E7F892B90FB81F983CF8D
:104E200090911B04892F8F7B96FF806476CF0E9420
:104E3000D60790911B04892F97FB87F980586DCF77
:104E400081E00E941F0E80911B0490911C040E941F
:104E5000A70D0E94D60780E0DF91CF91089580E0F2
:104E6000F0CF90911B04892F8F7E94FF806155CFE6
:104E700090911B04892F8E7F90FF81604ECF90917F
:104E80001C04892F877F93FF88604DCF81E0E4CF9A
:104E9000CF93DF93EB0186319C4711F50E949F0C65
:104EA0009A81992399F08A7A91E009F490E090939D
:104EB0000504811109C089E20E94770C0E94E00C70
:104EC00080E0DF91CF91089585E3F6CF80910504CE
:104ED000811104C089E20E947F0CF0CF85E3FBCFF3
:104EE00081E0EFCF0F931F93CF93DF93C42FD22F87
:104EF000FC0182818823C9F0409308040E94932911
:104F0000909307048093060480E28C0F883040F46D
:104F1000C77081E001C0880FCA95EAF70E946C054E
:104F2000DF91CF911F910F910895109108041413F0
:104F300032C080910604909107040E94AB29883CFE
:104F4000910548F5C0E2CD0F1D17B9F080E2810F41
:104F5000883040F4177081E001C0880F1A95EAF795
:104F60000E947305C83048F481E09D2F977001C0FE
:104F7000880F9A95EAF70E946C05802F0E946305BE
:104F8000C83070F6D77081E001C0880FDA95EAF773
:104F90000E947305C5CF80E28C0F883008F6C77079
:104FA00081E001C0880FCA95EAF7F2CF0F93DB01C9
:104FB00088519C4787309105A0F5FC01E55DFD4CCB
:104FC0000C94163106E221EE41EE6AE17CE7CD0158
:104FD0000E94722780E00F91089507E225EE45EECA
:104FE0006BE17CE7F4CF06E221EE40EE68E17CE77E
:104FF000EECF07E225EE44EE69E17CE7E8CF06E27A
:1050000021EE42EE6CE17CE7E2CF07E225EE46EED0
:105010006DE17CE7DCCF08E221E045EE6EE17CE764
:10502000D6CF12968C91882319F010920804D3CF12
:1050300081E0D1CF90938102809380020895909374
:105040000E0480930D040895E0910D04F0910E0478
:10505000309729F00190F081E02D0995089580E0C6
:105060000895E0910D04F0910E04309721F0028034
:10507000F381E02D09950895E0910D04F0910E045F
:10508000309739F022E0DC012C930480F581E02D8B
:1050900009950895A3E0B0E0E0E5F8E20C942C3126
:1050A00020910B0430910C0428173907A1F090933C
:1050B0000C0480930B04E0910D04F0910E043097E2
:1050C00051F023E029839B838A830680F781E02DBA
:1050D000CE01019609952396E2E00C944831A3E0B5
:1050E000B0E0E5E7F8E20C942C312091090430910E
:1050F0000A0428173907A1F090930A048093090441
:10510000E0910D04F0910E04309751F024E02983D2
:105110009B838A830680F781E02DCE010196099555
:105120002396E2E00C9448319C012E5F3F4FAC0186
:10513000485F5F4F80E02417350709F40895F901AF
:1051400091919F019923B9F38F5FF5CF662349F0C1
:10515000FC01329608962191261729F0E817F907E5
:10516000D1F780E0089581E008959C01FC0132961A
:105170009FEF80E04191461751F09F3F19F4411194
:1051800001C0982F8F5F8630A9F79F3F09F40895DB
:10519000290F311D97FD3A95F90162830895FC01AD
:1051A000329608962191261303C0DF0111971C92B5
:1051B000E817F907B9F708950E94B52808950E94E5
:1051C000CF280895029626E0FC0111922A95E9F76E
:1051D000089546E050E00E94533121E0892B09F404
:1051E00020E0822F089508950E94F32808958111E8
:1051F00006C081E080930F040E94F428089582E0A5
:10520000F9CF83E080930F040E94F42808950E9450
:10521000F728089581E080930F040E94F4280895F0
:105220000E940A2908950895089508950895CF9336
:105230000E9415290E9434120E941629C0E08C2F6A
:105240000E946811892B31F4CF5FC430C1F780E030
:10525000CF91089581E0FCCF85B7806885BF85B781
:10526000806885BF08951F921FB61F9211248F93E7
:105270009F93AF93BF9380911004811113C08091CD
:10528000FF0490910005A0910105B091020541969F
:10529000A11DB11D8093FF0490930005A09301050B
:1052A000B0930205BF91AF919F918F911F901FBE48
:1052B0001F90189580910705843031F10E94C90331
:1052C0001092100488E190E020E40FB6F894A895BD
:1052D000809360000FBE2093600083B7817F84605D
:1052E00083BF83B7816083BF7894889583B78E7FAF
:1052F00083BF0FB6F894A895809160008861809371
:105300006000109260000FBE08950E94D6070E94B0
:10531000D303089582E084BD93E095BD9AEF97BDD5
:1053200080936E0008952FB7F8948091FF049091B8
:105330000005A0910105B09102052FBF08952FB778
:10534000F8946091FF04709100058091010590919F
:1053500002052FBF08959C014FB7F8948091FF0478
:1053600090910005A0910105B09102054FBF821BED
:10537000930B0895CF92DF92EF92FF922FB7F8949C
:10538000C090FF04D0900005E0900105F090020568
:105390002FBFA7019601261B370B480B590BCA01DB
:1053A000B901FF90EF90DF90CF90089578941F920D
:1053B0001FB61F9211248F939F93AF93BF93809139
:1053C000FF0490910005A0910105B091020501969E
:1053D000A11DB11D8093FF0490930005A0930105CA
:1053E000B0930205BF91AF919F918F911F901FBE07
:1053F0001F90189581E08093E00080E28093D800B0
:105400001092C9008FE19EE40197F1F700C00000FF
:1054100087E090EBDC018093100590931105A09339
:105420001205B093130588E19CE00FB6F894A89597
:10543000809360000FBE90936000FFCF88E19CE0F6
:105440000FB6F894A895809360000FBE909360000B
:10545000FFCF8091190408959B01BA01909107052F
:105460009430E9F48F708093E9009FEF8091E80019
:10547000915085FD06C085ED8A95F1F700009111E8
:10548000F5CF8091E80085FF0AC050E040E0C901F7
:105490000E94262C8091E8008E778093E800089582
:1054A00043E050E0BC0182E00E942C2A089546E0CF
:1054B00050E0BC0182E00E942C2A0895CF93DF9334
:1054C000EC0148E050E0BC0181E00E942C2A88E019
:1054D000FE01A1E1B4E001900D928A95E1F7DF9120
:1054E000CF91089580910605811109C00E94B62DC3
:1054F0000E94132E8091E20084608093E200089560
:105500001092060508950E940A29089560910305E6
:1055100081E0611101C080E00E940129089590910D
:10552000070581E0943009F080E0609103050E9456
:105530000729089542E061EC81E00E94322D42E2A9
:1055400061EC82E00E94322D9091070581E0943059
:1055500009F080E0609103050E94F728089580918A
:105560000905833009F461C030F48130D1F1823013
:1055700009F49EC008958A3009F48AC08B3009F47A
:105580006FC0893009F050C080910805813209F060
:105590004BC080910C0590910D05029708F044C016
:1055A0008091E800877F8093E8008091E80082FF87
:1055B00037C09091F3008091F200029731F480910E
:1055C000F100813011F0863021F48091F100809358
:1055D00019048091E8008B778093E8000E94662D83
:1055E00023C080910805813AF9F48091E800877F13
:1055F0008093E80080910C0590910D05892B61F452
:1056000068E081E194E070E00E94752C8091E800F0
:105610008B778093E800089560E090E080E0F3CF1E
:10562000809107058111C1CF089580910805813AC5
:10563000D9F780910C0590910D05892BA9F78091E0
:10564000E800877F8093E8008091E80080FFFCCF2E
:105650008091E9018093F1008091E8008E77BCCFC2
:1056600080910805813201F780910C0590910D051C
:10567000892BD1F68091E800877F8093E8000E9413
:10568000662D80910A058093E9010E94D60708954E
:1056900080910805813241F68091E800877F8093F0
:1056A000E8000E94662D80910B0580931A040895EE
:1056B00080910805813A09F0B7CF8091E800877F93
:1056C0008093E8008091E80080FFFCCF80911A046D
:1056D000C1CF84B7877F84BF0FB6F894A895809117
:1056E0006000886180936000109260000FBE80E8C7
:1056F00090E00FB6F89480936100909361000FBE24
:105700000E94102908950E94B62D0E94132EE2EEE9
:10571000F0E080818460808378940E9492300895C4
:1057200081EE91E00E941F28089580910705853041
:1057300031F480910705853019F00E94852908957C
:105740000E945A2980910505882399F30E94172900
:10575000882379F30E94102C0E94D607EACF08957F
:105760009A0140910E0550910F050E94B82B0895A3
:10577000492F55274330510519F168F4413051053F
:1057800009F444C04230510509F445C090E080E07E
:1057900050E040E025C04132510549F14232510507
:1057A000A9F780E490E044EF54E061157105C1F081
:1057B0008BE790E049E754E06130710589F0E6CF6E
:1057C00099278130910581F0009729F00297F1F631
:1057D000ECEEF3E002C0E8E2F4E0849190E0AF0187
:1057E000F901518340830895E0E1F4E0F6CF89E0C8
:1057F00090E04EE354E06115710591F389E090E08B
:1058000047E554E06130710559F3C0CF82E190E083
:1058100047E654E0E5CF8BE390E04CE254E0E0CF84
:1058200080E189BD82E189BD09B400FEFDCF809190
:10583000D8008F7D8093D8008091E00082608093B3
:10584000E0008091E00081FDFCCF0895AF92BF920F
:10585000CF92DF92FF920F931F93CF93DF936C0150
:10586000EB018A010E94852DF82E811123C00115BC
:10587000110539F0F80180819181C81BD90BC80E40
:10588000D91EB12CA12C2097A9F08091E80085FDAC
:1058900022C08091E8008E778093E8000115110501
:1058A000A1F0F80180819181A80EB91EB182A08279
:1058B00085E0F82E8F2DDF91CF911F910F91FF90F2
:1058C000DF90CF90BF90AF9008950E94852D8823E0
:1058D000D1F2F82EEFCFF60181916F018093F100A4
:1058E0002197FFEFAF1ABF0ACECFFC0180910E05C2
:1058F00090910F0586179707A0F06115710529F49F
:105900009091E8009E779093E80090E06115710512
:1059100051F4911108C08091E80082FF34C080E00A
:105920000895BC01F2CF809107058823C1F185302D
:10593000C1F18091E80083FD30C08091E80082FDD4
:10594000EACF8091E80080FFE1CF8091F3002091C1
:10595000F200382F6115710519F02830310558F023
:1059600091E02830310509F090E02091E8002E7791
:105970002093E800CBCF81918093F10061507109B1
:105980002F5F3F4FE7CF80910705882341F0853097
:1059900041F08091E80083FFBECF81E0089582E06E
:1059A000089583E00895FC0180910E0590910F0504
:1059B00086179707A0F06115710529F48091E8001A
:1059C0008E778093E80090E06115710551F4911194
:1059D00008C08091E80082FF35C080E00895BC01D6
:1059E000F2CF809107058823C9F18530C9F18091F4
:1059F000E80083FD31C08091E80082FDEACF80910C
:105A0000E80080FFE1CF8091F3002091F200382F71
:105A10006115710519F02830310558F091E02830F2
:105A2000310509F090E08091E8008E778093E800DE
:105A3000CBCF84918093F1003196615071092F5F33
:105A40003F4FE6CF80910705882341F0853041F034
:105A50008091E80083FFBDCF81E0089582E0089542
:105A600083E00895982F973028F08F708093E90095
:105A700081E008959093E900242F762F50E0981745
:105A800031F07091EC002091ED005091F00021FD7B
:105A900002C09F5FE8CF3091EB003E7F3093EB0078
:105AA0003091ED003D7F3093ED003091EB0031609F
:105AB0003093EB007093EC002093ED005093F000D6
:105AC0002091EE0027FDE5CF80E008958091080544
:105AD00087FF13C08091E80082FF06C08091E80034
