:100000000C943A020C9472020C9472020C947202D8
:100010000C9472020C9472020C9472020C94720290
:100020000C9472020C9472020C94D22D0C94A62E95
:100030000C94D3280C9472020C9472020C947202E9
:100040000C9472020C9472020C9472020C94720260
:100050000C9472020C9476290C9472020C94720225
:100060000C9472020C9472020C9472020C94720240
:100070000C9472020C9472020C9472020C94720230
:100080000C9472020C9472020C9472020C94720220
:100090000C9472020C9472020C9472020C94720210
:1000A0000C9472020C9472020C9472022B001400D5
:1000B0001A000800150017001C0018000C001200A0
:1000C00013002A00290004001600070009000A0096
:1000D0000B000D000E000F0033003400E1001D0086
:1000E0001B00060019000500110010003600370043
:1000F000380028002078E000E200E30021522C00C4
:10010000000022525000510052004F0035021E02E2
:100110001F022002210222022302240225022602BB
:1001200027022A004C003A003B003C003D003E0004
:100130003F002D022E022F0230023102010040004A
:1001400041004200430044004500320264024A007C
:100150004D0001000100010001000100010001004B
:1001600000000100AB00AA00A900AE0035001E008F
:100170001F0020002100220023002400250026006B
:1001800027002A004C003A003B003C003D003E00A6
:100190003F002D002E002F003000310001004000F4
:1001A00041004200430044004500320064004B001F
:1001B0004E000100010001000100010001000100EA
:1001C00000000100AB00AA00A900AE000100007C05
:1001D000027C20782178237824782578267827785F
:1001E00028784C000100010001000100010001001D
:1001F00001000100010001000100010001000100F7
:1002000001000100010001000100010001000100E6
:1002100001000100010001000100010001000100D6
:1002200000000100010001000100010000010101C6
:1002300001010101010102020202020202020203A3
:100240000303030303030304040404040404050573
:100250000505050606060606070707070708080836
:1002600008090909090A0A0A0B0B0B0C0C0C0D0DE5
:100270000D0E0E0E0F0F0F1010111111121213137D
:100280001414151516161717181819191A1A1B1BF6
:100290001C1D1D1E1E1F2020212222232424252652
:1002A00026272829292A2B2C2D2D2E2F303132328A
:1002B000333435363738393A3B3C3D3E3F40414296
:1002C000434445464748494A4C4D4E4F505153547C
:1002D000555658595A5B5D5E5F6162646566686930
:1002E0006B6C6D6F7072737577787A7B7D7E8082B0
:1002F000838587888A8C8E8F91939596989A9C9EF9
:10030000A0A2A3A5A7A9ABADAFB1B3B5B7BABCBE08
:10031000C0C2C4C6C9CBCDCFD1D4D6D8DBDDDFE2D5
:10032000E4E7E9EBEEF0F3F5F8FAFDFF2203420013
:100330004D0034003000200048006F00740073004E
:10034000770061007000200052004700420000006A
:1003500016034B00500052006500700075006200EB
:100360006C006900630000000403090409023B00FB
:10037000020100A0FA0904000001030101000921A3
:100380001101000122400007058103080001090452
:1003900001000103000000092111010001227B007E
:1003A000070582032000011201000200000008502E
:1003B0004B303401000102000105010902A1018551
:1003C000020901A100050919012908150025019557
:1003D00008750181020501093009311581257F95D4
:1003E000027508810609381581257F9501750881F8
:1003F00006050C0A38021581257F950175088106CE
:10040000C0C005010980A101850319012AB70015A3
:100410000126B700950175108100C0050C0901A1E6
:1004200001850419012AA002150126A00295017573
:10043000108100C005010906A101050719E029E79F
:100440001500250195087501810295017508810146
:100450000507190029FF150026FF0095067508817C
:100460000005081901290595057501910295017589
:10047000039101C011241FBECFEFDAE0DEBFCDBF74
:1004800004B603FE18C08091100590911105A0914B
:100490001205B09113058730904BA740B04B59F42B
:1004A000109210051092110510921205109213056A
:1004B000E0E0F8E3099512E0A0E0B1E0E8EBF3E654
:1004C00002C005900D92A038B107D9F725E0A0E849
:1004D000B2E001C01D92A031B207E1F70E945D12A7
:1004E0000C945B310C94000081E00E9458240E941F
:1004F000B428089580E00E9458240E94B3280895EB
:1005000023E042E061E00E94280908958430B8F4B5
:100510006430A8F44C3098F450E09CE0699F400DA2
:10052000511D1124FA0190E3899FE00DF11D112462
:10053000EE0FFF1FE455FF4F85919491089581E0E0
:1005400090E008950E948602089581E0089581E078
:1005500008950E94A702089508950E94AC0208958C
:10056000A5E0B0E0E6EBF2E00C94CB3049835A838F
:100570003091870289819A81311119C0662399F0DF
:10058000222389F00E94C808182F682F89819A8138
:100590000E94A40869817A81812F0E94CD0F25963F
:1005A000E3E00C94E7300E94B608182FF3CF0E94C6
:1005B000C80869817A81F1CFFC01262F40815181E1
:1005C0006281738184810E94B002089581E0089560
:1005D000CF93DF93EC0160E00E94DC02BE010E9439
:1005E000AD02DF91CF91089508950E9476070E9491
:1005F000F4022FEF84E39CE0215080409040E1F72B
:1006000000C0000008950E94F5020E949A290895F2
:100610000E94F5020E94BE2908950F931F93CF9365
:10062000DF938C0161E00E94DC02EC01B8010E94C2
:10063000A902811106C080E0DF91CF911F910F9137
:100640000895B801CE010E9476278823A1F3B8014E
:10065000CE010E940C26882371F3B801CE010E94BE
:10066000E826882341F3B801CE010E948325882320
:1006700011F3F8018281882361F0C330FCE7DF07C2
:10068000E9F058F4C115ECE7DE07A9F0C130DC470A
:10069000B9F0C8010E94A502CFCFCB358CE7D807AF
:1006A000A9F0CC35ECE7DE0771F0CA35DC4789F7F5
:1006B0000E941E0DEECF0E940303BDCF0E94260DA7
:1006C0000E940803B8CF0E94140DE3CF0E94220DB0
:1006D000E0CF0E9474020E9439230E94980381E0B7
:1006E0000E94582408950E949C0380E00E94582490
:1006F0000E947A020895089581E008950895CF93A5
:10070000DF93D82F0E947C03C82F882319F08D2FE8
:100710000E947E038C2FDF91CF9108950895CF938F
:10072000C82F0E947B038C2F0E947F03CF910895D6
:1007300080E00E948F0308950E94C4270E948F03C7
:100740000895CF930E94C427C82F809182028C17EE
:1007500079F0C09382020E943F29609383027093D4
:10076000840280938502909386028C2F0E948F03CF
:10077000CF910895ABE0B0E0E0ECF3E00C94CC3026
:100780004F83588769877A878B8761110E945F0C36
:100790001E821D8285E0FE013796DE0111960190D2
:1007A0000D928A95E1F78C819D81892B61F44981B5
:1007B0005A816B817C818D819E810E94870B2B9653
:1007C000E2E00C94E83089819A8189238F3F79F3A4
:1007D000CE0101960E94E6028111E9CFF0CFFC0123
:1007E000808191810E94FA080895662329F00E9471
:1007F000E1120E94B41308950E943B13FACFCF93E5
:10080000C82F8823C9F08238C9F40E94C42781FD0B
:1008100013C089E30E94170C0E94800C2FEF87EE13
:1008200093E0215080409040E1F700C0000089E350
:100830000E941F0C0E94800CCF9108958338A1F470
:100840000E94C42780FDF8CF83E50E94170C0E9408
:10085000800C2FEF81EE94E0215080409040E1F732
:1008600000C0000083E5E4CF8438A1F40E94C427CF
:1008700082FDE2CF87E40E94170C0E94800C2FEFCC
:1008800081EE94E0215080409040E1F700C00000EC
:1008900087E4CECF8CEF8C0F813A90F46C2F80914F
:1008A000CF019091D0010E944628882329F08C2FF7
:1008B0000E941F0C0E94800C8C2F0E94170CBACF34
:1008C00080E28C0F883048F4C77081E001C0880F47
:1008D000CA95EAF70E94420CADCFEBE5EC0FE3308E
:1008E00040F4F0E0ED5DFD4F808190E00E94EA274A
:1008F000A3CFE8E5EC0FEB3150F4F0E0EE0FFF1F73
:10090000E351FE4F808191810E940F2895CF83E3B0
:100910008C0F833108F090CF61E08C2F0E94F5039B
:100920008BCF882309F456C0823879F40E94C427FB
:1009300081FF50C089E30E94170C0E94800C89E35C
:100940000E941F0C0E94800C0895833859F40E9465
:10095000C42780FF3FC083E50E94170C0E94800CD3
:1009600083E5EECF843859F40E94C42782FF32C059
:1009700087E40E94170C0E94800C87E4E1CF9CEF73
:10098000980F913AE8F290E2980F983050F48770FF
:1009900091E001C0990F8A95EAF7892F0E94480CCF
:1009A000D1CF9BE5980F933028F490E080E00E942F
:1009B000EA27089598E5980F9B3128F490E080E0AD
:1009C0000E940F28089593E3980F933118F460E084
:1009D0000E94F50308951F93CF93DF93182FEB0127
:1009E0000E94FF03209739F4812F0E949104DF9128
:1009F000CF911F9108958FE99FE00197F1F700C013
:100A000000002197EFCF70E060E0893311F460E5DA
:100A100070E00E94EB040895882321F00E94420CAC
:100A20000E94800C0895882321F00E94480C0E94A7
:100A3000800C0895B0E0A0E0E0E2F5E00C94C53051
:100A40006C01D62FC72FFC011281058102950F7012
:100A50000E94380CE82E8823E9F0E12E1123D1F012
:100A60008C2F807F803451F080E28D0F8830F8F039
:100A7000011104C08C2F807E8032C9F080911C044B
:100A800082FF15C082E00E94E30C0E94380C91E0C6
:100A9000E82EE926BC2EB2949FE0B922FBE0FB15BC
:100AA000B8F1EB2DF0E0E35AFE4C0C94B630E12C9B
:100AB000F1CF0C2F0F70C07F11F00295007F112332
:100AC00099F0002359F080E28D0F883010F0D11199
:100AD00007C0802F0E94420C0E94800C8D2F63C0A3
:100AE000802F0E94520CF8CF8D2F0E94910400237A
:100AF00079F080E28D0F883010F0D11104C0802F82
:100B00000E94480C03C0802F0E94580C0E94800C49
:100B10002B2D2850330B2430310520F40E94C4279C
:100B20000E948F03EE2089F00E94340C80FD0DC0DE
:100B3000F60112820E942E0C0E940208C6010E9439
:100B400036070E942E0C0E941208CDB7DEB7E9E0EE
:100B50000C94E1302C2F2F70F22EC07FC03219F090
:100B6000F29480EFF822DD2381F0D13009F449C0FE
:100B7000112309F451C0002309F448C0F60185810E
:100B800080FFACCF8F70858341C080911C0482FDB3
:100B900015C0112359F0FF2029F08F2D0E94420C1F
:100BA0000E94800C80E00E94FF03B2CF80E00E9490
:100BB0009104FF2009F4ACCF8F2DA2CF112381F037
:100BC000011106C00E94620C8F290E940C05A0CF63
:100BD0000130C1F70E94620C8F290E94690C98CFE6
:100BE000011106C00E94760C8F2D0E94130590CF34
:100BF000013009F48DCF8F2D0E9413050E94760CD1
:100C000087CF112329F0063008F082CF8F2DDDCF5A
:100C1000053008F07DCFE8CF002331F3D93349F414
:100C2000FFEF27EE33E0F15020403040E1F700C005
:100C300000008D2F0E9491046BCF8C2F8695869596
:100C4000837069F0813009F063CF8D2F9C2F9370F2
:100C5000111102C080E090E00E940F2859CF8D2F23
:100C60009C2F9370111102C080E090E00E94EA274F
:100C70004FCF612F8D2F0E94F5034ACF8C2F8370A9
:100C8000A1F5111145CF4D2F429546954770440F60
:100C9000440F2D2F2F7030E0042E02C0220F331F7F
:100CA0000A94E2F790E080E0D4FF09C08FE090E082
:100CB00002C0880F991F4A95E2F780959095C695D6
:100CC000C695C370822B932BC23049F058F4C130C3
:100CD00019F00E94D5071CCF0E94CC0719CF0E94A3
:100CE000DE0716CF0E94C90713CF8695112311F096
:100CF0008C2F8170882309F40BCF4D2F4295469598
:100D00004770440F440F2D2F2F7030E0042E02C087
:100D1000220F331F0A94E2F790E080E0D4FF09C06D
:100D20008FE090E002C0880F991F4A95E2F7809506
:100D30009095C695C695C370822B932BC23049F00F
:100D400058F4C13019F00E943D08E2CE0E943408E8
:100D5000DFCE0E944608DCCE0E94EA07D9CECF70D3
:100D6000112329F08C2F0E9402088D2F2ECF8D2F5A
:100D70000E9413058C2F0E941208CACED23F41F167
:100D800060F4D03FB9F0D13F81F0112309F446C09F
:100D90000111A4CE8C2F8F711FC0D33F01F1D43F1E
:100DA000A1F780911C0482FD24C08C2F8F71112328
:100DB00011F312C0112341F0053008F0A9CE8C2F99
:100DC0008F710E942408A4CE063008F0A1CEF7CF80
:100DD0008C2F8F711111CFCF0E94020899CE112351
:100DE00029F08C2F8F710E94F60792CE0E94F10796
:100DF0008FCE112349F0CF718C2F0E94020863E03F
:100E00008C2F0E94C50C84CE81E00E94E30C02303E
:100E100008F47ECE82E00E94E30C7ACE002359F0E3
:100E2000D93309F006CF8FEF97EEE3E08150904081
:100E3000E040E1F7FCCE8C2F8F719DCF0F931F9375
:100E4000CF93DF93EC01688179818A810E94050943
:100E50008C010E944F080E94C807B801CE010E9471
:100E60001A05DF91CF911F910F910895CF93DF93D2
:100E7000EC018B819C81892B29F0888199818923C0
:100E80008F3F51F4DF91CF910895CE010E941E074C
:100E9000CE010E94E802F6CFCE010E940D0381111F
:100EA000F4CF0E94380C882369F38A81882351F398
:100EB00080911C0482FFE6CF82E00E94E30CE2CF27
:100EC00090E080E00E94EA2790E080E00E940F28F6
:100ED0000E945F0C0E94800C0E94D0130E94B413E9
:100EE00008950E94270C0E94600708950E944F0CED
:100EF0000E947107089592959F70963091F058F472
:100F0000925F9F70923058F4803F19F030F4883E21
:100F100030F481E008959A5FF4CF843FD1F380E00C
:100F20000895883EB0F3813FD1F7F3CFFC01838170
:100F30009481892B29F08081918189238F3F11F43D
:100F400080E00895808191810E94FA080E947B07C9
:100F50000895A5E0B0E0EFEAF7E00C94CC302596D8
:100F6000E2E00C94E830A6E0B0E0E9EBF7E00C94A6
:100F7000CC302696E2E00C94E83008950E94BD073C
:100F800008950E94BE079093A3028093A202089541
:100F900008950E94C10708952091A2023091A302F2
:100FA000822B932B0E94C10708952091A2023091B9
:100FB000A302822393230E94C10708952091A202D5
:100FC0003091A302822793270E94C10708950E94AF
:100FD000800208950E94E7079093A1028093A002E7
:100FE000089590E080E00E94EA07089521E030E053
:100FF000A90102C0440F551F8A95E2F7CA010E9459
:10100000EA07089521E030E002C0220F331F8A95DD
:10101000E2F78091A0029091A102822B932B0E9473
:10102000EA07089521E030E002C0220F331F8A95BD
:10103000E2F7209530958091A0029091A102822341
:1010400093230E94EA07089521E030E002C0220FB6
:10105000331F8A95E2F78091A0029091A102822726
:1010600093270E94EA0708952091A0023091A102DF
:10107000822B932B0E94EA0708952091A0023091C1
:10108000A102822393230E94EA0708952091A002DF
:101090003091A102822793270E94EA0708950895BC
:1010A000262F277091E001C0990F2A95EAF723E0D7
:1010B000769567952A95E1F7660F771F660F771F7C
:1010C000FA01E60FF71F50E040E0682F70E08191D1
:1010D000DF0111979B01042E02C0369527950A94D3
:1010E000E2F7217021952827292328272C934F5F89
:1010F0005F4F4430510559F70895A82FA77023E09A
:10110000969587952A95E1F7880F991F880F991F63
:10111000FB01E80FF91F50E040E080E0219130E052
:101120000A2E02C0369527950A94E2F721703327DC
:10113000042E01C0220F0A94EAF7822B4F5F5F4F03
:101140004430510559F70895262F943070F48C30AF
:1011500060F4682F70E08CE0989F600D711D112481
:1011600048E852E0822F0E9450080895292F9430B9
:1011700068F48C3058F490E068E872E03CE0239F1B
:10118000800D911D11240E947D08089580E008952E
:10119000B0E0A0E0EEECF8E00C94C5307C010091EA
:1011A000A0021091A1028091A2029091A302082BAB
:1011B000192BCFE0D0E0CC24C394D12CBC2EC60197
:1011C0000C2E02C0880F991F0A94E2F78023912306
:1011D000892B49F4219790F7B12C8B2DCDB7DEB731
:1011E000E9E00C94E130B7018C2F0E94D90F0197F0
:1011F00089F3F3CFCF93DF93EC010E94C808BE01BF
:101200000E94D90FDF91CF9108951F93CF93DF9361
:10121000EB0190918702992339F0CB010E94FA08E3
:10122000DF91CF911F910895882369F0CB010E942F
:10123000C808182F682FCE010E94A408BE01812F74
:101240000E94D90FEDCFCB010E94B608182FF6CF20
:10125000E1E0F0E0DF0102C0AA0FBB1F6A95E2F7F0
:10126000BD01DF0102C0AA0FBB1F4A95E2F7AD0125
:10127000462B572B02C0EE0FFF1F2A95E2F79A016B
:10128000282339232417350719F48E2B9F2B089513
:10129000E095F0958E239F2308951F93CF93DF93BE
:1012A000C091A40216E08091A5028C1304C0DF91C6
:1012B000CF911F910895D0E01C9FF0011D9FF00D6C
:1012C0001124EA55FD4F40815181628173818481EF
:1012D00095810E94B3072196C770E5CF4091D60251
:1012E0005091D7026091D8027091D9028091DA02B0
:1012F0009091DB020E94B30708952091A40290917F
:10130000A50256E0291302C080E0089530E0529F04
:10131000F001539FF00D1124EA55FD4F71817613B2
:1013200006C07081781303C07281741304C02F5FEC
:101330003F4F2770E7CF81E008951F93CF93DF934E
:101340008091DB02807F09F04BC08091D802882316
:1013500009F446C08091A402C091A5024091D60232
:101360005091D7026091D9027091DA02D42FD5231F
:1013700016E0C817A9F190E061157105A9F1DF3FEA
:1013800099F1189FF001199FF00D1124DF01AA5562
:10139000BD4F11962C911197251326C02C91241323
:1013A00023C012962C91129721111EC013962D91D5
:1013B0003C91261B370B283C3105B0F48091DB02B1
:1013C0008F7080618093DB02E555FD4F80818F70C7
:1013D0008061808386ED92E00E9436070E944D096D
:1013E000DF91CF911F91089501968770C2CFA1E13F
:1013F000B0E0EDEFF9E00C94C2308C0185E0F8012B
:10140000DE011D9601900D928A95E1F7F801F280B8
:1014100086EDA82E82E0B82E4091D9025091DA02D2
:101420004115510509F45AC19091D6022091D70275
:10143000892F82238F3F09F451C1C080D1808380DE
:101440009480E090D802B401641B750BEE2009F47F
:10145000F6C08091DB02382F307F683C710508F0C0
:10146000AFC031117AC0EF2C2D1116C09C1114C0E1
:10147000F11012C08F7080618093DB020E946E09B0
:10148000C5010E9436078091DB02F80185838E2D0D
:101490006196ECE00C94DE3081149104C9F18C2D3E
:1014A0008D218F3FA9F181E08F2580FF05C04F2D51
:1014B0006D2D8C2D0E947D098114910459F18C2D84
:1014C0008D218F3F39F181E08F25F82FF170BF2EEC
:1014D00080FF39C04F2D6D2D8C2D0E947D09A82EC7
:1014E000811131C0CD86DE868D859E850E94FA08E9
:1014F000292F22952F70243078F49F702230A8F085
:101500009923B9F0F8019581907F99F4EA2CBFCF27
:1015100080E0CBCF80E0D9CF2A5F2F70223068F0F7
:10152000C8010E943607AB2CF1CF992311F0882314
:1015300069F3805E883050F3F3CF803F38F3815FEA
:10154000833070F7E3CFFF2009F4A1CF8091DB0255
:1015500081608093DB02E12C9ACF2D1105C09C1194
:1015600003C0FF2009F486C0C8010E9496078823A3
:1015700019F1FF2009F18091DB02803270F0209197
:10158000D6023091D70238872F8319869B868A86A8
:101590008C87CE0107960E94360786E0F801A6EDFB
:1015A000B2E001900D928A95E1F70E949D090E9498
:1015B0006E09EE24E3946BCFC8010E943607F9CF81
:1015C000311114C0782D998A888AA6016F2D8989D6
:1015D0000E94A90786ED92E00E94360786E0F50199
:1015E00011928A95E9F70E946E09B5CF2D110EC0B0
:1015F0009C110CC0F1100AC08583C8010E943607F7
:1016000086E0F50111928A95E9F741CFC8010E9461
:101610009607882389F2FF2079F28091DB028032DD
:1016200008F4BBCF2091D6023091D7023A832983A8
:101630001B829D828C828E83CE010196ACCF683C4A
:10164000710508F03DC0EF2CFF2009F4B5CF2D1136
:1016500029C09C1127C08091DB0280FD1AC0982F01
:10166000907FB9F08583903F31F0982F907F905F05
:101670008F70892B8583C8010E94360786E0F801A8
:10168000A6EDB2E001900D928A95E1F70E946E09F5
:10169000FECE86E0F801A6EDB2E001900D928A95AB
:1016A000E1F7F5CEC8010E949607811176CF8091AF
:1016B000DB0281608093DB02C8010E943607E7CE1F
:1016C000782D998A888AA6016F2D89890E94A90799
:1016D00086E0F50111928A95E9F7D8CFFF2009F449
:1016E0006BCFC8010E949607E82E882309F464CFC7
:1016F00086E0F801A6EDB2E001900D928A95E1F73F
:1017000086ED92E00E94EF030E949D09BFCFACE0FE
:10171000B0E0EDE8FBE00C94CB304F83588769874D
:101720007A878B879C87CE0107960E94F7098823CA
:10173000B1F08A859B85892B39F04F815885842F9C
:1017400085238F3F09F06CC016E08091A402909130
:10175000A502891343C02C96E3E00C94E73086E0A1
:10176000FE013796DE01119601900D928A95E1F700
:101770008A859B85892B41F38F81988589238F3FAB
:1017800019F32091A50230E0C901019687709927CD
:101790004091A4024817190671F40E94760710922E
:1017A000A5021092A40286E0E6EDF2E0DF011D92B0
:1017B0008A95E9F7C9CF96E0929FD001939FB00D2B
:1017C0001124AA55BD4FFE01319601900D929A95B4
:1017D000E1F78093A5020E944D09B6CF819FC00119
:1017E00011248A559D4F0E94F709882309F4B3CF2D
:1017F000E091A4021E9FF0011124EA55FD4F4081A3
:10180000518162817381848195810E94B3078091A7
:10181000A40290E00196877099278093A40295CF47
:1018200069857A858B859C850E94B3078DCF682F4B
:101830008091CF019091D0010E947C280895682F5B
:101840008091CF019091D0010E947F2808958091CE
:10185000CF019091D0010E94822808958091E402E6
:1018600085958595859508958091E4028770089502
:101870009091E402977081E009F480E008958091EE
:10188000EF0208959091EF02892B8093EF02089563
:1018900080959091EF0298239093EF020895109213
:1018A000EF0208959091EE02892B8093EE02089545
:1018B00080959091EE0298239093EE0208951092F5
:1018C000EE0208958091E502089508950E94650C46
:1018D000089590911C0492FF08C09091E50298171A
:1018E00021F08093E5020E94660C08958091E50244
:1018F000882329F01092E50280E00E94660C08958A
:10190000CF93DF93E091CF01F091D0018091EF026E
:101910008083E091CF01F091D00180819091EE021F
:10192000892B80839091E502992381F0E091CF018A
:10193000F091D0018081892B80838091CF0190919B
:10194000D0010E94342881110E94760CC091CF01F1
:10195000D091D00148E050E06CED72E0CE010E94E1
:10196000F330892B59F088E0FE01ACEDB2E0019034
:101970000D928A95E1F7CE010E94D127DF91CF9198
:10198000089508950E94C10C089590911C0492FF3F
:1019900011C098E0899F90011124622B6093E402AA
:1019A0000E9402088091E4028595859585950E94A4
:1019B000C20C08950E94020808951092E40280E08B
:1019C0000E94C20C08959091E4028095892380932F
:1019D000E402282F277091F4282F082E000C330BD7
:1019E0009217130659F090911C0492FF07C0859539
:1019F000859585950E9412080E94DD0C08959091AE
:101A00001C0492FB222720F9281769F080FB92F929
:101A100090931C0480911B0490911C040E94470D1C
:101A200082E00E94E30C089580911C0482FB8827C9
:101A300080F991E089270E94FF0C089581E00E94BF
:101A4000FF0C089580E00E94FF0C08956FEF7FEF78
:101A500090E080E00E945531089590E080E00E947F
:101A6000213121E0873E9E4F09F020E0822F08952A
:101A700082E090E00E941931089583E090E00E9496
:101A80001931089584E090E00E9421310895BC014D
:101A900084E090E00E9455310895AB01BC018FE0D5
:101AA00090E00E9449310895AB01BC0183E190E0D0
:101AB0000E944931089560E070E0CB010E94540D0E
:101AC000089560E070E0CB010E944D0D0E945B0D17
:101AD000089567EE7EEF90E080E00E94553160E06F
:101AE00082E090E00E94373160E083E090E00E9465
:101AF00037311092A3021092A20260E074E184E0F8
:101B000090E00E94553160E086E090E00E9437311D
:101B10006FEF87E090E00E94373140E050E0BA017B
:101B200088E090E00E94493160E08DE090E00E9402
:101B3000373140E050E0BA0188E190E00E9449313D
:101B400060E087E190E00E94373140E050E0BA0168
:101B50008CE190E00E94493170E060E080E290E02A
:101B60000E94553140E050E0BA0188E190E00E94C7
:101B700049310E94610D08950E94690D0895682FF2
:101B80008EE090E00E9437310895A5E0B0E0EBECE4
:101B9000FDE00C94CA300E9433298C018091F00240
:101BA0009091F10280179107A1F08FEF89838A83CA
:101BB0001B820E9433298160782F9D838C83498109
:101BC0005A816B818D810E94BA031093F1020093B8
:101BD000F0022596E4E00C94E6300E943F296093E1
:101BE000FE027093FF0280930003909301036093C1
:101BF000FA027093FB028093FC029093FD02089519
:101C0000089508950E94010E089508950E94050EFA
:101C1000089581E0089583EC90E10E94BA270E9424
:101C2000000E0E94020E08950E94090E08950E945F
:101C3000140E0895089508950E941A0E0E941B0E16
:101C400008950E94E2100E948E030E94F1230895DD
:101C50000E942A290E94BE110E94210E0E94060E97
:101C60000895A5E0B0E0E7E3FEE00C94C0300E94E8
:101C7000090E81110CC00E94C50D0E9439230E94DB
:101C8000F2130E94A1032596EEE00C94DC300E9432
:101C9000D41122EF822E22E0922E640110E0F60190
:101CA000E190F1906F01812F0E9408111F5F1430A5
:101CB00009F450C0E816F90691F38091020381FD02
:101CC0000E9411110E94170E682E10E0812F0E94B1
:101CD00008117C01F401A190B1904F018A159B0578
:101CE00091F1A826BF2400E0CC24C394D12CC501D7
:101CF0008C219D21892BF1F077247394C7018C21CD
:101D00009D21892B09F4712C662079F009831A83AF
:101D10007B820E9433298160782F9D838C83498147
:101D20005A816B818D810E94BA03472D602F812FCC
:101D30000E94871F0F5FCC0CDD1C0C30C1F6F40134
:101D40003297F182E0821F5F143009F0BFCF0E940A
:101D5000ED0D93CFE816F90609F0AFCF8CCF1F93A6
:101D6000CF93DF930E94DE0FEC01C11580E5D80709
:101D7000F0F5C11580E4D80708F09CC0C03ED1053D
:101D800020F5CD3CD10508F082C0C83AD10578F4E1
:101D9000C53AD10508F073C0C130D10519F12097BB
:101DA00009F1C430D105F0F4D0E0C0E01BC0C33C61
:101DB000D105D0F7C85AD0E0CC0FDD1FCA5DDD4F8A
:101DC0000990D881C02DD4640DC0C11580E2D80718
:101DD00008F0D1C0C11581E0D80708F05AC0C83E4C
:101DE000D10510F7CE01DF91CF911F910895C03634
:101DF00082E5D80718F5C03482E5D80708F06BC033
:101E0000C03282E5D80708F05FC0C11582E5D80767
:101E100008F497C02C2F2695269580E2289F9001E4
:101E200011248C2F8370C1E0D0E002C0CC0FDD1FE5
:101E30008A95E2F7C22BD32BDD68D4CFC03A82E576
:101E4000D80760F4C03882E5D80708F459C0CF71CC
:101E5000D0E0DC2FCC27C46FD06AC4CFC03C82E571
:101E6000D80708F462C0C03E82E5D80708F09CCFCE
:101E7000DC2FCC27CC27DF71C06FD06AB3CFC55A17
:101E8000D0E0C45ADD4FC881D0E0D064ABCFD0657C
:101E9000A9CF8D2F0E948010182FCE0199270E9464
:101EA000DE0FC12FD0E0DC2FCC27CC27DF71C82B71
:101EB000D92B98CFCE0199270E94DE0FCC27DF7057
:101EC000C82BD92BD06A8ECFCF71D0E0DC2FCC2796
:101ED000C16FD06A87CF2C2F26952695277080E278
:101EE000289F900111248C2F8370C1E0D0E002C0A4
:101EF000CC0FDD1F8A95E2F7C22BD32BDC6872CFA3
:101F00002C2F26952695277080E2289F900111247A
:101F10008C2F8370C1E0D0E002C0CC0FDD1F8A950A
:101F2000E2F7C22BD32BDA685DCF8C2F8F710E9422
:101F30008010C82FD0E0DC2FCC27CC27DF71D062F7
:101F400051CF8C2F8F710E94801055E0D695C79588
:101F50005A95E1F7CF70D0E0DC2FCC27282F30E066
:101F600084FF05C044E0220F331F4A95E1F7C22BDE
:101F7000D32BD06937CF8D2F8F710E948010182FEF
:101F8000CE0199270E94DE0FC12FD0E0DC2FCC2795
:101F9000CC27DF71C82BD92BD2CF462F743030F429
:101FA0006C3020F4672F0E94A202089590E080E038
:101FB00008950E94CD0F0E94AF0E089582389105BA
:101FC000B9F1B0F48133910509F47DC048F4893248
:101FD000910509F46DC08A32910509F47BC008951A
:101FE0008533910509F45FC08933910509F108959E
:101FF000833E9105D9F138F4803E910529F1823E66
:10200000910579F10895863E9105D9F1873E9105B4
:1020100009F43EC0843E910541F520911C0421FF46
:1020200024C080911B0484FD19C087EE90E00895C0
:1020300020911B04237009F05AC020911C0423FF37
:1020400014C089E290E0089520911B0420FD38C05F
:1020500030911C0430FF09C024FF43C090E080E0B1
:10206000089520911B0422FDF7CF089520911B04B1
:1020700022FD3AC030911C0430FD39C024FFF5CF59
:10208000EDCF20911B0423FFF0CF24FDE7CFCDCF70
:1020900020911B0423FD2EC030911C0431FFEECF94
:1020A00084EE90E0089520911B0425FFDECFC9CF78
:1020B00020911B0425FD21C020911C0423FFD5CFB6
:1020C00089E390E0D2CF20911B0426FFCECF8AE295
:1020D00090E0089520911B0426FFC7CF81E390E094
:1020E000089583EE90E0089582EE90E0089580EEEA
:1020F00090E0089586EE90E0089585E390E00895DD
:1021000090911B0492FF06C0282F28712830F9F403
:10211000877F846093FF06C0282F28712831F1F44F
:10212000877E846120911C0420FF06C0382F3871FF
:102130003830D9F4877F816021FF06C0282F2871AD
:102140002831D1F4877E816194FD877E0895282F00
:1021500024712430F9F68B7F8860DCCF282F24711E
:10216000243101F78B7E8861DDCF382F317131301A
:1021700019F78E7F8860E0CF282F2171213121F758
:102180008E7E8861E1CF80E008950E94260D08953B
:102190000E94D4112FEF86E791E0215080409040BB
:1021A000E1F700C000000E94D41180E00E940811F5
:1021B00080FF04C00E94C5100E949A2908950E94C1
:1021C000C81008950E942D0D811102C00E94BC0DFF
:1021D0000E94380D809302030E94420D90931C04CC
:1021E00080931B040E94DF100E943D0D90E00E942E
:1021F000C9078091A0029091A1020E94E70708956B
:1022000008950E940011089508950E9404110895F0
:10221000E82FF0E0EE0FFF1FEB5DFB4F8081918117
:102220000895089580EA8A95F1F7089500C0089509
:102230000E9412110895F894E82FE295EF70F0E0F3
:1022400031A1282F2F7081E090E001C0880F2A95DE
:10225000EAF7982F9095932391A392A1892B82A3BB
:1022600078940895CF93DF9383E30E941B1182E358
:102270000E941B1186EC0E941B1185E30E941B111A
:10228000CFE5D2E089918F3F11F00E941B1182E0CF
:10229000CB36D807B9F7DF91CF910895AF92BF92AF
:1022A000DF92EF92FF920F931F93CF93DF938C01F6
:1022B000D62EC62FD0E0CE0185599D4F7C01FC0162
:1022C00020812F3F09F44DC0F894E22FE295EF7082
:1022D000F0E031A12F7081E090E001C0880F2A95D5
:1022E000EAF7932F982B91A392A18095892382A33B
:1022F00078940E941611EFE5F2E04BE652E021E0FF
:1023000030E0B12CA12C61916F3FA9F1A62FA295CD
:10231000AF70B0E090968C9190E06F7002C0959590
:1023200087956A95E2F780FD26C0C901A82AB92AD7
:10233000220F331F4E175F0731F7F70180818F3F60
:1023400011F00E941B1161E0A114B10409F460E0D6
:102350008D2D0E941811CC0FDD1FC00FD11FB98227
:10236000A882DF91CF911F910F91FF90EF90DF90A6
:10237000BF90AF90089590E080E0D8CF0E943211D6
:1023800088E0E5E2F4E0DF01982F1D929A95E9F7E5
:10239000EDE1F4E0DF011D928A95E9F784E00E9407
:1023A0000F120E9401110895A8E0B0E0EAEDF1E1FA
:1023B0000C94C9308E010F5F1F4F88E0F801119215
:1023C0008A95E9F7F12C6F2DC8010E944E11F39404
:1023D000F4E0FF12F8CF48E050E0B8018DE194E05E
:1023E0000E94F33021E0009709F420E0892B41F0AE
:1023F00088E0F801ADE1B4E001900D928A95E1F733
:1024000044E065E274E08DE194E00E941012182F20
:102410000E940511812F2896E5E00C94E53008957F
:10242000CF92DF92EF92FF921F93CF93DF936C01D5
:102430007B01C42F222349F081E0809305030E9491
:102440003329909304038093030310910503111122
:102450000AC010E0812FDF91CF911F91FF90EF9084
:10246000DF90CF90089580910303909104030E9420
:102470004B29059770F3D0E0CC0FDD1FAE01B601FC
:10248000C7010E94F330892B41F0AE01B601C701AC
:102490000E94003110920503DDCF10E0FBCF0E94B7
:1024A000232B0E94280E0E94302B08950E94352B6A
:1024B0000E94310E0E944F2B08950E94CC280E944A
:1024C000092B0E940B0E0E944F120E9456120E946E
:1024D0001C0EFBCF80910C0380FF0DC06091D601D4
:1024E00070E0660F771F6038710570F56115710532
:1024F00069F1862F089581FF07C06091D60184E0BD
:10250000689FB0011124EFCF6091D60182FD0AC00F
:1025100080910B038823A9F02091D5016091D60109
:10252000821710F088E0ECCF869FC001112433E0C1
:10253000880F991F3A95E1F7622F70E00E94613091
:10254000D2CF68E070E0D5CF8FE7089581E008959D
:1025500080910C0380FF0CC06091D20170E07595F2
:102560006795759567956115710549F1862F0895F1
:1025700081FF06C06091D20170E075956795F3CF39
:102580006091D20182FD0BC090910A039923A1F0C2
:102590006091D1018091D201961738F0682F70E0D8
:1025A0006038710500F38FE70895899FC0011124F9
:1025B00070E00E946130F4CF61E070E0D7CF81E03D
:1025C00008958D3C31F40E946A1281958093100326
:1025D00008958E3C19F40E946A12F8CF8F3C31F4B2
:1025E0000E946A12819580930F030895803D19F42B
:1025F0000E946A12F8CF893D29F40E94A8128093A4
:10260000110308958A3D21F40E94A8128195F7CF05
:102610008B3D31F40E94A812819580931203089596
:102620008C3D19F40E94A812F8CF9FE2980F9830C1
:1026300070F4815D990B21E030E001C0220F8A9592
:10264000EAF780910E03822B80930E0308958D3D4F
:1026500031F480910C03816080930C0308958E3DCA
:1026600021F480910C038260F7CF8F3DB9F7809100
:102670000C038460F1CF40910F038D3C59F480919D
:10268000100387FF0DC01092100341110BC0109270
:102690000B0308C08E3C81F48091100318169CF344
:1026A000442381F08091110390911203892B09F04A
:1026B0005AC010920A0308958F3C49F447FFF0CFA7
:1026C00010920F03809110038111ECCFE0CF803D79
:1026D00019F41416ACF3E4CF90911103893D29F459
:1026E0001916F4F610921103DBCF8A3D19F497FF07
:1026F000D7CFF8CF909112038B3D29F497FFD0CF1D
:1027000010921203CDCF8C3D19F41916CCF3C8CF1B
:102710009FE2980F983090F4815D990B21E030E0B2
:10272000B90102C0660F771F8A95E2F7CB01809549
:1027300090910E03892380930E03B2CF8D3D31F427
:1027400080910C038E7F80930C03AACF8E3D21F4E1
:1027500080910C038D7FF7CF8F3D09F0A1CF809141
:102760000C038B7FF0CF08950E9433299C01909138
:102770000F0380911003982B21F0309309032093CD
:1027800008039091110380911203982B21F030934C
:102790000703209306038DE093E00E94DC27089551
:1027A00086E0EDE0F3E0DF011D928A95E9F71092F3
:1027B0000B0310920A0310920C030895FC0182810E
:1027C00081110EC0838181110BC08481811108C0E9
:1027D00091E08581811101C090E0892F8170089579
:1027E00081E0FCCFA6E0B0E0E8EFF3E10C94CB3061
:1027F00086E0EDE0F3E0DE01119601900D928A95FE
:10280000E1F710920F03109210031092110310922F
:1028100012038B819C81892B89F080910803909110
:1028200009030E944B29AC0190910B039923C9F134
:102830008091D7018417150608F440C08D819E81D0
:10284000892B91F080910603909107030E944B29F8
:10285000AC0190910A03992309F471C08091D301CE
:102860008417150608F479C0BE016F5F7F4F8DE0B5
:1028700093E00E948928811105C08DE093E00E94B9
:10288000DE1381110E94B41386E0FE013196ADE0A3
:10289000B3E001900D928A95E1F72696E3E00C945F
:1028A000E7302091D8018AE0289F90011124241755
:1028B000350720F69F5F90930B0302C09F3FD1F72F
:1028C0001B81112359F00E946A129FEF11160CF41C
:1028D00091E0899F802D112480930F031C81112387
:1028E00059F00E946A129FEF11160CF491E0899F33
:1028F000802D11248093100330910F03332309F4AA
:102900009DCF20911003222309F498CF45EB340387
:10291000C0011124992359F090930F0345EB240330
:1029200090011124332339F03093100387CF81E0D5
:1029300080930F03F3CF81E0809310037FCF20912A
:10294000D4018AE0289F900111242417350708F04C
:102950008BCF9F5F90930A0302C09F3FD1F71D81E9
:10296000112359F00E94A8129FEF11160CF491E068
:10297000899F802D1124809311031E81112359F00A
:102980000E94A8129FEF11160CF491E0899F802DF0
:1029900011248093120330911103332309F464CF7F
:1029A00020911203222309F45FCF45EB3403C001C9
:1029B0001124992359F09093110345EB24039001BE
:1029C0001124332339F0309312034ECF81E08093EA
:1029D0001103F3CF81E08093120346CFEF92FF9271
:1029E0000F931F93CF93DF93EB01E82FD1110EC00C
:1029F000442321F0F0E0E45DFD4FE4916E2F7E2F43
:102A00008E2FCDB7DEB7E6E00C94E4300D2F10E04A
:102A1000282F30E0442329F0245D3D4FF901249113
:102A200030E0F6E0CF9FC0011124EFEFF0E0BF01EE
:102A30000E944D30AB018C2F90E0880F991FA5E5C7
:102A4000A49FB001A59F700D1124861B970B982F92
:102A5000990F980FBF01601B710B629FD001639F9C
:102A6000B00D729FB00D11248B2F9D9FB0011124CA
:102A7000672F7727EF01C61BD70BBE01629FE001CE
:102A8000639FD00D729FD00D11247F01E91AF108C8
:102A9000E09EB001E19E700DF09E700D1124672F35
:102AA0007727E61BF70BE29F8001E39F100DF29F53
:102AB000100D1124E12F722F4230510599F048F486
:102AC0004115510569F04130510581F0EB2F8D2FF3
:102AD00007C04430510569F080F046305105B1F728
:102AE0006E2F8FCFE22F7B2F812FFACFE22F7D2FFA
:102AF000F7CFEB2F822F712FF3CF7B2F822FED2F6C
:102B0000EFCF41E00E94EE14089530E020E0869F70
:102B1000212D969F200D311D1124C9010895AC016E
:102B20008230910508F408959FEF413E8EE15807E9
:102B300040F49A0195E0369527959A95E1F798E04B
:102B4000920F61E0E62FE90FFF27FF1F9F013595E8
:102B50002795822F229FF001239FF00DF00D112465
:102B60004E175F0738F49FEF920F961758F78FEFC5
:102B7000860F08952F3FE9F361E0620FF6CF409191
:102B8000DF015091E00125E038E0429FC001439F02
:102B9000900D529F900D1124875E994C9093E00107
:102BA0008093DF01890F0895E82F86FDE0952E2F91
:102BB0002F7086FD2F5FE695E695E695E670F0E0CE
:102BC000E159FD4F9181929F902D212D11249295D5
:102BD0009F702295207F922B2081920F87FD9195E7
:102BE00080E8890F0895E42FF0E0EE0FFF1FE05D0D
:102BF000FE4F408134EE439F412D1124E72FF0E03A
:102C000050E0445E5F4FDA01A21BB1099D01B7FF9E
:102C100003C031952195310993E0220F331F9A9516
:102C2000E1F7AF01421B530B9A0157FD20E0279FAC
:102C3000212D1124722F0895E42FF0E0EE0FFF1FD5
:102C4000E05DFE4F408134EE439F412D1124E82F7B
:102C5000F0E050E0445E5F4FDA01A21BB1099D0134
:102C6000B7FF03C031952195310993E0220F331F3F
:102C70009A95E1F7AF01421B530B9A0157FD20E0F3
:102C8000582F259F212D1124822F0895622F0895FA
:102C9000E42FF0E0EE0FFF1FE05DFE4F6081621B4E
:102CA0000895E42FF0E0EE0FFF1FE050FF4F61A901
:102CB000621B0895322F50E0FA01EE0FFF1FE05023
:102CC000FF4F91A9905297FD9195440F551FFA011E
:102CD000E05DFE4F2081231B330B290F311D97FD33
:102CE0003A95620F0895EF920F93972F23E0029F7A
:102CF000B0011124759567956E0D792F0F91EF90A6
:102D000008950F93CF93DF93D72FC82F47FD419599
:102D100088E390E0841B910947FD9395889FB0015B
:102D2000899F700D700D1124229FC001239F900D6B
:102D3000900D1124860F971F0E948F15982F990FC1
:102D4000890F682F600F7D2F8C2FDF91CF910F910E
:102D500008950F931F93522F10E0F801EE0FFF1FFD
:102D6000E050FF4FA1A9A052BB0B9D015203F001FF
:102D7000539FF00D1124000F111FD801A05DBE4F0D
:102D80000C910057110B40039001419F300D11240D
:102D90002E0F3F1F37FF02C021583F4F220F232F16
:102DA000221F330B620F1F910F9108950F931F93F2
:102DB000522F10E0F801EE0FFF1FE050FF4FA1A9C6
:102DC000A052BB0B9D015203F001539FF00D112443
:102DD000000F111FD801A05DBE4F0C910057110BC1
:102DE00040039001419F300D11242E0F3F1F37FFEC
:102DF00002C0215C3F4F96E0359527959A95E1F703
:102E0000620F1F910F9108950F931F9310E0F80127
:102E1000EE0FFF1FE05DFE4F9081905797FD91955B
:102E2000000F111FF801E050FF4F01A90052110BD4
:102E30002003F001219FF00D112408E310E0091B8D
:102E4000110997FD139540039001419F300D112406
:102E5000E20FF31F9F01220F331F2E0F3F1F37FF7B
:102E600002C021583F4F220F232F221F330B620F26
:102E70001F910F9108950F931F93CF93DF938B01B1
:102E8000D82FC42F822F0E94D415EC2FF0E0EE0F24
:102E9000FF1FE05DFE4F90819058890F87FD81955F
:102EA000880F682F2CE0629F612D1124600F712F15
:102EB0008D2FDF91CF911F910F910895E42FF0E0B6
:102EC000EE0FFF1FE05DFE4F9081921B97FD9195E5
:102ED000292F38E1239F212D1124620F089520917D
:102EE000310430E1230F08F42FEF60E1822F90E0EE
:102EF0000E948515BC0188EB9BE00E944D3090E05C
:102F000080E008954095282F429F412D1124842F61
:102F1000089522E8241B08F420E0620F0895EF9240
:102F2000FF920F93970195E0099F200D311D112409
:102F30002F3F310519F010F02FEF30E02095382F9A
:102F4000320F08F43FEF832F0F91FF90EF90089519
:102F5000EF92FF920F931F930E0D1F2D111DF9017C
:102F600037FF03C0F195E195F10924E0EE0FFF1F53
:102F70002A95E1F7EF3FF10519F014F0EFEFF0E0DB
:102F80009A0157FF03C031952195310994E0220F32
:102F9000331F9A95E1F72E173F070CF4F901E00F64
:102FA000F11FEF3FF10519F010F0EFEFF0E0E095C1
:102FB000282F3E2F230F08F42FEF822F1F910F9100
:102FC000FF90EF900895EF92FF920F93972F09349F
:102FD00038F4B701601B71096F3F710519F010F0EB
:102FE0006FEF70E0485F5F4F4131510540F0A9013C
:102FF000485F5F4F4131510510F06FEF70E0609511
:10300000482F460F08F44FEF842F37FF02C02D5F83
:103010003F4F359527953595279560912E04620F82
:10302000792F0F91FF90EF900895EF92FF920F93F9
:103030009701201B31092F3F310519F010F02FEFB8
:1030400030E0322F3095482F430F08F44FEF842F94
:10305000620F0F91FF90EF900895EF92FF920F9300
:103060009701201B31092F3F310519F010F02FEF88
:1030700030E02095382F320F08F43FEF832F0F9167
:10308000FF90EF9008959091D603892B8093D603FB
:103090000895FC019B01009729F480E077FF2BC085
:1030A00080E80895AC0197FF04C044275527481BCA
:1030B000590BB901640F751F37FD10C0241B350B68
:1030C000C901A5E0880F991FAA95E1F70E94613018
:1030D00080E2861BF7FF0FC081950895CB0165E064
:1030E000880F991F6A95E1F7BA01621B730B0E9462
:1030F000613080E6EECF08950F931F93CF93DF9357
:10310000D62F172FC82FC901272F201B022FBA0136
:103110000E944918982F990F990F782F791B700FDB
:10312000719F712D11246D2F8C2FDF91CF911F91E5
:103130000F9108950F931F93CF93DF93D62FC72F2F
:10314000182FC901212F201B022FBA010E944918F4
:10315000982F990F990F891B800F282F219F212DC0
:103160001124822F6D2F7C2FDF91CF911F910F9112
:103170000895EF920F931F93CF93DF93D62F172FBE
:10318000C82FC9010E19070FBA010E944918702FE4
:10319000781B719F712D11246D2F8C2FDF91CF9192
:1031A0001F910F91EF900895EF920F931F93CF937C
:1031B000DF93D62FC72F182FC9010E19010FBA019F
:1031C0000E944918081B202F219F212D1124822F96
:1031D0006D2F7C2FDF91CF911F910F91EF9008956C
:1031E0000F93CF93DF93D72FC82FC901BA010E9445
:1031F0004918682F600F7D2F8C2FDF91CF910F9191
:103200000895EF920F93CF93DF93D72FC82FC90163
:103210000E19BA010E944918602F681B7D2F8C2F50
:10322000DF91CF910F91EF90089546E050E06CE16F
:1032300070E08DE294E00E9427311092D603089549
:103240000E9481150895EDE2F4E085E3808380918A
:10325000EA019091EB01A091EC0181839283A38319
:103260008FE784838FEF85830E941519089580E08E
:1032700008950F931F93CF93DF93C82FD62F8A0102
:103280000E9437199CE0C99FB001112460507F4F04
:103290006D0F711DFB0190819F3F29F0F801E80F30
:1032A000F11D90838F5FDF91CF911F910F91089552
:1032B000E0917D02F0917E0209950895E0917902F6
:1032C000F0917A0209950895B0E0A0E0EAE6F9E10C
:1032D0000C94BD303C012B01FC01C0818BE0C89FE8
:1032E000C02D11241BE01C0FF12E163310F035E316
:1032F000F32E6091310466958091330490913404EB
:103300000E948515382ED0E0CE01880F991F9C01B0
:1033100020503F4F6901CF1548F081E0153308F088
:1033200080E0CDB7DEB7E1E10C94D930FE01E6567E
:10333000FE4F8081F3019181892379F1F60180A903
:10334000282F2057330B590181A9E82FE052FF0B9A
:103350004F01AA9C9001AB9C300D300D1124EE9FC3
:10336000C001EF9F900D900D1124820F931F0E94BA
:103370008F15082F60912E0470912F0480913004D6
:10338000E32C9401A501F20109950E942019462F12
:10339000282F672FCE010E945E19F2E0CF0ED11CBC
:1033A0002196B9CF69EB78E10E946419089564ED24
:1033B00078E10E946419089563E776E10E94641938
:1033C000089561E079E10E9464190895B0E0A0E0F9
:1033D000ECEEF9E10C94C2305C016B01FC01C081A0
:1033E0008BE0C89FC02D11241BE01C0F912E1633BB
:1033F00010F035E3932E609131046695809133048B
:10340000909134040E948515882ED0E0CE01880F5B
:10341000991F9C0120503F4F7901C91548F081E068
:10342000153308F080E0CDB7DEB7ECE00C94DE3069
:10343000FE01E656FE4F8081F50191818923C1F09E
:10344000F70121A92052330B40A94057550B609139
:103450002E0470912F0480913004082DF6010995F7
:103460000E942019462F282F672FCE010E945E1937
:10347000F2E0EF0EF11C2196D0CF6CE778E10E94CC
:10348000E61908956AE978E10E94E619089561E86D
:1034900076E10E94E619089560EF78E10E94E6194E
:1034A0000895B0E0A0E0E7E5FAE10C94C5307C01B6
:1034B0008B01FC01C0818BE0C89FC02D11249BE0D3
:1034C000D92EDC0ECD2CF5E3FD1510F485E3C82EC6
:1034D000609131046695669521E0620F08F46FEF04
:1034E00080913304909134040E948515B82ED0E069
:1034F000CC1550F081E094E39D1508F480E0CDB741
:10350000DEB7E9E00C94E130FE01E656FE4F808123
:10351000F7019181892391F060912E0470912F041D
:10352000809130042B2D4C2FF80109950E94201911
:10353000462F282F672FCE010E945E192196D8CFE3
:1035400063EF75E10E94511A08956CE176E10E94E3
:10355000511A089566E476E10E94511A089568E4CC
:1035600076E10E94511A089561E576E10E94511AB0
:1035700008956AE576E10E94511A08956BE377E1B8
:103580000E94511A08956EE577E10E94511A08953C
:10359000B0E0A0E0EEECFAE10C94C1305C016B010C
:1035A000FC01C0818BE0C89FC02D11241BE01C0FC3
:1035B000912E163310F035E3932E60913104669509
:1035C000669580913304909134040E948515F82EFD
:1035D00080E48F0D0E94D41590E8892E880E8F2DDF
:1035E0000E94D41520E8722E780ED0E0C91548F05C
:1035F00081E0153308F080E0CDB7DEB7EDE00C9444
:10360000DD30FE01E656FE4F8081F5019181892370
:10361000A1F060912E0470912F0480913004EF2C62
:103620000C2F272D482DF60109950E942019462FB1
:10363000282F672FCE010E945E192196D7CF69EA05
:1036400076E10E94C81A089566ED76E10E94C81AD4
:10365000089564E077E10E94C81A0895B0E0A0E000
:10366000E4E3FBE10C94C4308C017B01FC01C081DC
:103670008BE0C89FC02D11242BE0B22EBC0EAB2CCA
:10368000F5E3FB1510F495E3A92E2091310431E008
:10369000230F08F42FEF30E050E040E06FEF7FEFB2
:1036A00080E090E00E9497306901D0E02C2FCA158D
:1036B00050F081E0F4E3FB1508F480E0CDB7DEB70D
:1036C000EAE00C94E030FE01E656FE4F8081F801FE
:1036D0009181892311F1409137044150042E000C4F
:1036E000550B47FF1CC0C6016091310421E0620FF9
:1036F00008F46FEF0E948515AC0160912E04709163
:103700002F0480913004F70109950E942019462F5B
:10371000282F672FCE010E945E192196C7CFFA018C
:10372000E95CFB4F818982130AC0FA01EE0FFF1F8B
:10373000E95CFB4F818D928D8C159D05A8F241505F
:103740005109CFCF62E877E10E942E1B089569E806
:1037500077E10E942E1B0895ABE0B0E0E2EBFBE1C5
:103760000C94BC308C832B015F834E83FB01F08172
:103770008BE0F89F802D11248983855F8A838B835A
:10378000863310F025E32B83309137043D839981F4
:10379000892F90E09B878A87880F991FFC01E05052
:1037A000FF4F6F01FC818F2F90E09C012F5F3F4FF7
:1037B00039872887EB81FA85FE1748F081E02A8156
:1037C000253308F080E02B96E2E10C94D830EA85AE
:1037D000FB85E656FE4F8081F2019181892301F13C
:1037E00020902E0430902F0428853985295C3B4F8A
:1037F00039013C81398310E029813D812317C8F0CC
:1038000020913004129F112D1124B101812F0E94AB
:103810002019462F282F672F8A859B850E945E19C5
:103820008A859B8501969B878A8792E0C90ED11C69
:10383000C1CFF30181913F01F601A0A8A81ABB08EE
:1038400081A8F3018781881A9908AA9C9001AB9CF2
:10385000300D300D1124889CC001899C900D900D75
:103860001124820F931F0E948F15082F609131043D
:1038700021E0620F08F46FEFF301EE0FFF1FE75333
:10388000F440858996890E9485157C019401A501E3
:10389000B101812FEE81FF8109951B01F981FF5F45
:1038A000F983182FA9CF2091370431E0231B08F4A6
:1038B00020E04FE857E1BC01822F0E94AC1B089525
:1038C0004FE857E1BC0180E00E94AC1B08952091B5
:1038D000370431E0231B08F420E048EA57E1BC013B
:1038E000822F0E94AC1B089548EA57E1BC0180E09A
:1038F0000E94AC1B08952091370431E0231B08F48B
:1039000020E043EE57E1BC01822F0E94AC1B0895DA
:1039100043EE57E1BC0180E00E94AC1B089520916A
:10392000370431E0231B08F420E045E158E1BC01F5
:10393000822F0E94AC1B089545E158E1BC0180E054
:103940000E94AC1B08952091370431E0231B08F43A
:1039500020E04DE258E1BC01822F0E94AC1B08958B
:103960004DE258E1BC0180E00E94AC1B0895B0E03C
:10397000A0E0EDEBFCE10C94C5307C01FC01C081C2
:103980008BE0C89FC02D11241BE01C0F012F1633A4
:1039900008F005E360912E0470912F0480913004AB
:1039A0000E942019D62EC72EB82ED0E0C01748F09E
:1039B00081E0153308F080E0CDB7DEB7E9E00C9484
:1039C000E130FE01E656FE4F8081F70191818923A7
:1039D00031F02B2D4D2D6C2DCE010E945E192196BC
:1039E000E5CFB0E0A0E0E7EFFCE10C94C2307C0151
:1039F000FC01C0818BE0C89FC02D11241BE01C0F6F
:103A0000012F163308F005E3C0902F04D090300446
:103A1000D0912E046D2F7C2D8D2D0E942019B62E55
:103A2000A72E982E609131046D0F7C2D8D2D0E9454
:103A30002019D62EC72E882ED0E0C01748F081E07E
:103A4000153308F080E0CDB7DEB7ECE00C94DE3043
:103A5000FE01E656FE4F9081F7018181892359F0DE
:103A6000282D4D2D6C2D90FD03C0292D4B2D6A2D39
:103A7000CE010E945E192196E0CFB0E0A0E0E3E421
:103A8000FDE10C94C5307C01FC01C0818BE0C89F36
:103A9000C02D11241BE01C0FD12E163310F095E31E
:103AA000D92EC0902F04B09030042091310400E44E
:103AB000029F012D1124D0E0CD1548F081E015338F
:103AC00008F080E0CDB7DEB7E9E00C94E130FE010C
:103AD000E656FE4F8081F70191818923B9F0FE01FE
:103AE000EE0FFF1FE050FF4F81A982958F7060910C
:103AF0002E04809F600D11247C2D8B2D0E94201997
:103B0000462F282F672FCE010E945E192196D4CF11
:103B1000B0E0A0E0EEE8FDE10C94C5308C01FC01C2
:103B2000C0818BE0C89FC02D11245BE0F52EFC0EF8
:103B3000DF2CF5E3FF1510F445E3D42EC0902F04DD
:103B4000B09030042091310430E4E32E3E2D329FBA
:103B5000312D1124E32ED0E0CD1550F081E034E377
:103B60003F1508F480E0CDB7DEB7E9E00C94E13012
:103B7000FE01E656FE4F8081F80191818923D9F03C
:103B8000FE01EE0FFF1FE050FF4F60A9E69EB0015F
:103B9000112495E0759567959A95E1F780912E042B
:103BA000680F7C2D8B2D0E942019462F282F672F00
:103BB000CE010E945E192196CFCFB0E0A0E0E3EEE7
:103BC000FDE10C94C5308C01FC01C0818BE0C89FE5
:103BD000C02D11249BE0F92EFC0EEF2CF5E3FF1510
:103BE00010F485E3E82ED0902E04D0912F04C090DD
:103BF0003004609131046695669566958091330432
:103C0000909134040E9485150E94D415805887FD38
:103C10008195880F282F3C2D239F212D1124822F41
:103C20006D2D7D2F0E942019D62EC72EB82ED0E0E4
:103C3000CE1550F081E024E32F1508F480E0CDB7D5
:103C4000DEB7E9E00C94E130FE01E656FE4F8081DC
:103C5000F8019181892331F02B2D4D2D6C2DCE0152
:103C60000E945E192196E4CFB0E0A0E0EAE3FEE115
:103C70000C94C7308C01FC01E656FE4F808168230E
:103C800049F1D0902F04D0913004C0912E04EC2E35
:103C9000F12C0E94BF15282FC7018C549F4F68E656
:103CA00071E00E9461308E199F0997FD03969595EA
:103CB00087959595879523706C2F289F600D11240B
:103CC0007D2D8D2F0E942019462F282F672FC80188
:103CD0000E945E19CDB7DEB7E7E00C94E330B0E0A8
:103CE000A0E0E5E7FEE10C94C7307C01FC01C08157
:103CF0008BE0C89FC02D11248BE0D82EDC0E828172
:103D0000811128C06091310420E1620F08F46FEF47
:103D100080913304909134040E9485156AE070E02C
:103D20000E944D30892B61F40E94BF15F5E38F9FEF
:103D3000C0011124F7016181892F90E00E94341E97
:103D400081E0F4E3FD1508F480E0CDB7DEB7E7E0ED
:103D50000C94E3300D2DF5E3FD1508F405E3D0E0F8
:103D600010E0C017D10764F7F7016181CE010E940E
:103D7000341E2196F6CF1F93CF93DF93EC01FC0105
:103D8000E656FE4F80816823B1F00E94BF15182FC0
:103D90000E94BF1520E8829FC00111247FE7790FA0
:103DA000612F809130040E942019462F282F672F01
:103DB000CE010E945E19DF91CF911F910895B0E06E
:103DC000A0E0E5EEFEE10C94C7308C01FC01C2815D
:103DD000C11124C06091310420E1620F08F46FEF3B
:103DE00080913304909134040E94851565E070E061
:103DF0000E944D30892B61F40E94BF15F5E38F9F1F
:103E0000C0011124F8016181892F90E00E94BB1E3E
:103E10008C2FCDB7DEB7E7E00C94E330C0818BE0A8
:103E2000C89FC02D11248BE0D82EDC0E8D2DF5E31C
:103E3000FD1508F485E3D0E0E82EF12CCE15DF0562
:103E400034F0C1E0F4E3FD1518F7C0E0E1CFF8016C
:103E50006181CE010E94BB1E2196F0CFB0E0A0E0B0
:103E6000E4E3FFE10C94C5307C01FC01C0818BE0F0
:103E7000C89FC02D11241BE01C0F012F163308F022
:103E800005E3C0902F04D0903004D0912E046091AF
:103E9000310466956695669580913304909134045B
:103EA0000E9485150E94D415805887FD8195880F42
:103EB000682F2CE0629F612D11246D0F7C2D8D2DBC
:103EC0000E948115D62EC72EB82ED0E0C01748F01C
:103ED00081E0153308F080E0CDB7DEB7E9E00C945F
:103EE000E130FE01E656FE4F8081F7019181892382
:103EF00031F02B2D4D2D6C2DCE010E945E19219697
:103F0000E5CFE0917B02F0917C0209950895CF9274
:103F1000DF92FF920F931F93CF93DF93CDB7DEB75E
:103F200028970FB6F894DEBF0FBECDBF182F062F0F
:103F3000F42E0E94140E882309F44CC0FF2009F4CB
:103F400057C0AE014F5F5F4F602F812F0E9439191C
:103F5000F82E0F2D10E08091D703800F912F911D27
:103F600009976CF188E090E06C01C01AD10AB801A1
:103F700068527C4FA60188ED93E00E940031B801A1
:103F800060527C4FA60180EE93E00E940031A601B2
:103F9000440F551FB801660F771F60517C4F80EFAB
:103FA00093E00E940031B80168517C4FA60188EE71
:103FB00093E00E94003188E08F198093D70310911D
:103FC000D703DE01119640E0842F810FF41212C056
:103FD0008093D70328960FB6F894DEBF0FBECDBFEF
:103FE000DF91CF911F910F91FF90DF90CF900895B7
:103FF000F12CAFCF5D91252F30E090E0BC016952EC
:104000007C4FF901EE0FFF1FE05DFE4F0081FB01C9
:104010000183220F331FF901E050FF4F21A9FB015B
:104020002187518B880F991FFC01E952FC4F128E9A
:10403000118E4F5FC9CFB0E0A0E0E1E2F0E20C9456
:10404000BC30782E8091DD01871124C090912D0421
:1040500093702091DE0130E081E09217130609F49D
:1040600080E081708093DC01809132049091DB01CB
:10407000981739F08093DB0140E060E080E00E9417
:10408000811F2AE2271588F0E72DF0E0E759FE4C62
:104090000C94B63081E0E5CF8091DC01882359F0A3
:1040A00040E060E080E00E94811F80E004C08AED73
:1040B00091E00E94B71C9091DA019F5F9093DA0122
:1040C00081110CC082E08093D9018091DC018111C3
:1040D00005C0711003C083E08093D901CDB7DEB76E
:1040E000E2E10C94D8308AED91E00E94F11CE3CF1C
:1040F0008AED91E00E943D1DDECF8AED91E00E94A5
:10410000881DD9CF8AED91E00E94DD1DD4CF8AEDC4
:1041100091E00E94A01ACFCF8AED91E00E94A51AEB
:10412000CACF8AED91E00E943D1AC5CF8AED91E099
:104130000E94421AC0CF8AED91E00E94D219BBCFF3
:104140008AED91E00E94D719B6CF8AED91E00E94E6
:10415000AA1AB1CF8AED91E00E94AF1AACCF8AEDD6
:1041600091E00E94B41AA7CF8AED91E00E94B91A9B
:10417000A2CF8AED91E00E94DC199DCF8AED91E0FB
:104180000E94471A98CF8AED91E00E944C1A93CF73
:104190008AED91E00E94E1198ECF8AED91E00E94B4
:1041A0001F1B89CF8AED91E00E94241B84CF8AEDEA
:1041B00091E00E94291B7FCF8AED91E00E946F1E43
:1041C0007ACF8AED91E00E94DF1E75CF8AED91E0F3
:1041D0000E942E1F70CF8AED91E00E94BE1A6BCF15
:1041E0008AED91E00E94C31A66CF9091DA011BE03C
:1041F000919F100D1124409133045091340460912B
:104200003504709136048091D2039091D303A0912C
:10421000D403B091D50384179507A607B70708F014
:1042200052C00E94BF1595E3899FE0011124CD2F54
:10423000DD27FE01E656FE4F80819091DB01892348
:1042400009F441C00E94BF1520E040E060E081FD1C
:1042500013C00E94BF15082F0E94BF15E0E88E9F73
:10426000C00111247FE7790F602F809130040E94F4
:104270002019462F282F672FCE010E945E1920910A
:10428000310430E1230F08F42FEF60E1822F90E03A
:104290000E948515BC0184EF91E00E944D30809111
:1042A000330490913404A0913504B0913604860F04
:1042B000971FA11DB11D8093D2039093D303A093A8
:1042C000D403B093D50381E0153308F4F4CEEDCEDA
:1042D0004091CE035091CF036091D0037091D103F0
:1042E0008091330490913404A0913504B091360448
:1042F00084179507A607B70708F4D7CE8091DC018D
:1043000081114AC0C091DA018BE0C89FC02D1124F1
:104310004BE0F42EFC0EEF2CF5E3FF1510F435E323
:10432000E32E0C2F10E023E0C29FE0011124C15DB9
:10433000DC4F0E1508F466C0F4E381E0FF1508F0C9
:10434000BACEEFE2F3E08BEC93E08E179F0709F013
:104350006BC00E94BF1581FF6EC01092CB031092FC
:10436000CC031092CD030E946F170091330410917B
:1043700034042091350430913604DC01CB01800FE8
:10438000911FA21FB31F8093CE039093CF03A093DE
:10439000D003B093D10389CE40E060E080E00E947A
:1043A000811F0FE213E0D0E0C0E00E94BF1581FF43
:1043B0000BC0F80110821182128221960D5F1F4FEF
:1043C000C533D10591F79ECF0E94BF15D82E0E940C
:1043D000BF15F0E88F9FC00111247FE7790F7E01A0
:1043E000EE0CFF1CEC0EFD1EC701815D9C4F7C0195
:1043F0006D2D809130040E948115F70160837183D7
:104400008283DBCFF801E656FE4F80819091DB017D
:10441000892331F02A8148816981C8010E945E198F
:1044200023960F5F1F4F85CF2381348145812193D0
:10443000319341938ACF0E94BF15C82F0E94BF15A8
:1044400020E8829FC00111247FE7790F6C2F8091B3
:1044500030040E9481156093CB037093CC0380934A
:10446000CD0381CF8091DC01882329F040E060E01A
:1044700080E00E94811F9091DA018BE0282E989FA6
:10448000200C112440913304509134046091350480
:104490007091360480912B0390912C03A0912D03F1
:1044A000B0912E0384179507A607B70708F072C0CE
:1044B00060912E0470912F04809130040E94201985
:1044C000662E572E482E03E113E0C0E0D1E090E3C2
:1044D000892E91E0992E6E015E01780185E0382EDB
:1044E000F50181915F0190E0F7012081222309F419
:1044F00057C0242D462D652D0E945E19F601838537
:10450000242D462D652D90E00E945E19F7018181D2
:1045100081937F013A94F1E0CF1AD1083110E0CFB6
:104520008D8190E0F8012581222309F444C0242DD7
:10453000462D652D0E945E198E81242D462D652DF8
:1045400090E00E945E190E94BF15837091E009F00F
:1045500090E0F80195830A5F1F4F2C968C169D06FC
:1045600009F0B9CF0E946F17009133041091340401
:104570002091350430913604DC01CB01800F911F6E
:10458000A21FB31F80932B0390932C03A0932D03A2
:10459000B0932E0381E0F4E3F21508F08CCD85CDC5
:1045A00020E040E060E00E945E19F601838520E093
:1045B00040E060E0A8CF20E040E060E00E945E19AB
:1045C0008E8120E040E060E0BBCF8AED91E00E9468
:1045D000A21B71CD8AED91E00E94A71B6CCD8AEDE4
:1045E00091E00E94531C67CD8AED91E00E94601C0F
:1045F00062CD8AED91E00E94671C5DCD8AED91E06D
:104600000E94741C58CD8AED91E00E947B1C53CD12
:104610008AED91E00E94881C4ECD8AED91E00E94C7
:104620008F1C49CD8AED91E00E949C1C44CD8AEDFF
:1046300091E00E94A31C3FCD8AED91E00E94B01C46
:104640003ACD81E008950E942123089581E00895E4
:104650000E9426230895FC0180819BE0899F802D84
:104660001124682F863308F065E38B500E942823BD
:1046700008954F925F926F927F928F929F92AF9226
:10468000BF92CF92DF92EF92FF92CF93609100049E
:104690007091010480910204909103040E945A29B0
:1046A0006B017C010E943F294B015C018092000458
:1046B00090920104A0920204B0920304A091D70347
:1046C000E7EDF3E08A2F90E04FEF5FEF60E070E0FE
:1046D0004C195D096E097F09A9132AC08093D7037D
:1046E00080910404C0E0811108C080912D04C82F7E
:1046F000C37019F0C82FC695C6958091D901813035
:1047000009F440C0882339F1823009F447C083306E
:1047100009F44FC0CF91FF90EF90DF90CF90BF9002
:10472000AF909F908F907F906F905F904F90089583
:10473000218D328D2901712C612C4415550566059A
:10474000770520F481509F5F3296C6CF2C0D3D1D1A
:10475000328F218FF8CF1092DA0180923304909239
:104760003404A0923504B092360489E2E7EDF3E018
:10477000A7E3B4E001900D928A95E1F781E0809380
:10478000D901C8CF8C2F0E941B20CC2319F20E9484
:1047900023238AED91E00E942B23BCCFC093DD013F
:1047A00080912D0483708093DE010E94581983E06C
:1047B000E6CF8091D60381110E94151960913304D0
:1047C0007091340480913504909136040E945A29E6
:1047D000603171058105910508F49CCF1092D901D3
:1047E00099CFE0917702F091780209951092370401
:1047F0008FEF9FEF90935104809350049093530454
:1048000080935204909355048093540490935704DA
:1048100080935604909359048093580490935B04BA
:1048200080935A0490935D0480935C0490935F049A
:1048300080935E041092D7039093F1038093F0036A
:104840009093F3038093F2039093F5038093F40322
:104850009093F7038093F6039093F9038093F80302
:104860009093FB038093FA039093FD038093FC03E2
:104870009093FF038093FE030E942D0D811104C0CD
:104880000E94BC0D0E94231981E08093D60346E06C
:1048900050E06CE170E08DE294E00E9409311092EA
:1048A000D60380912D048C7F11F40E942319089562
:1048B000CF93C82F882391F08091040481110EC0FA
:1048C0000E941B201092DD0180912D048370809343
:1048D000DE010E94581983E08093D901C09304043B
:1048E000CF910895EDE2F4E0908121E0922790834A
:1048F0001092D9010E944318089581E00E94722409
:10490000089590912D04937051F0811109C0946025
:1049100090932D041092D901862F0E944318089578
:104920008B3210F0986AF4CF282F220F220F922B8F
:10493000EFCF61E00E9481240895682F90912D04AB
:104940009695969581E0890F8B3208F081E00E9460
:104950008124089581E00E949D240895682F9091FC
:104960002D04969596958FEF890F09F48AE20E949F
:104970008124089581E00E94AE24089590912D0431
:10498000937061F080932E0460932F04453B08F0F0
:1049900044EB40933004822F0E9443180895ADE207
:1049A000B4E01196EC911197F0E0282F13964C91FA
:1049B000139712966C91CF0108960E94BE24089519
:1049C00081E00E94CF240895EDE2F4E09181282F48
:1049D00043816281E92FE850FF0BCF010E94BE2482
:1049E000089581E00E94E4240895EDE2F4E06281FC
:1049F00020E1620F08F46FEF9181282F4381892F06
:104A000090E00E94BE24089581E00E94F52408955C
:104A1000EDE2F4E0628120E1621B08F460E0918144
:104A2000282F4381892F90E00E94BE24089581E0C1
:104A30000E9408250895EDE2F4E0438120E1420F51
:104A400008F44FEF9181282F6281892F90E00E9416
:104A5000BE24089581E00E941B250895EDE2F4E054
:104A6000438120E1421B08F440E09181282F6281BC
:104A7000892F90E00E94BE24089581E00E942E2597
:104A80000895EDE2F4E0248130E1230F08F42FEFE4
:104A900024830E944318089581E00E9441250895CF
:104AA000EDE2F4E0248130E1231B08F420E02483CC
:104AB0000E944318089581E00E94502508950895AA
:104AC000FC01EE0FFF1FE80FF91FE05AFB4F618357
:104AD000408322830895E0E6F4E08183608342838B
:104AE000339694E0EF3FF907C1F7089565E370E06E
:104AF00080E694E00E94E0250895FA01811101C04A
:104B0000FB01099508951F93CF93DF93EC01FB01FF
:104B10001281111110C00E943F0C8272FE01E052FE
:104B2000F847E531F10508F049C0EC56FE4C0C940D
:104B3000B6300E947D24812FDF91CF911F9108957F
:104B40004AEB54E26AEA74E20E947D25F4CF4AEA15
:104B500054E26AEB74E2F8CF41EF54E260EE74E2A3
:104B6000F3CF40EE54E261EF74E2EECF47E155E25D
:104B700064E075E2E9CF44E055E267E175E2E4CF35
:104B80004DE355E26AE275E2DFCF4AE255E26DE3BA
:104B900075E2DACF4BE555E26CE475E2D5CF4CE433
:104BA00055E26BE575E2D0CF81E00E949924C3CF36
:104BB00085E0FBCF8DE0F9CF82E1F7CF11E0BBCFED
:104BC0006A9A4EB14B7F5EB15460EFB7F8949B0187
:104BD000220F331F260F371F280F391F28173907B9
:104BE00041F4EFBF8FE594E00197F1F700C00000BA
:104BF0000895DC016D91CD0178E05EB9000000C040
:104C000067FF4EB9660F000000C000C000C04EB97B
:104C100000C07A9591F7E2CFCF93DF93EC01FB01CF
:104C20008281882309F4D2C09E0130572332310596
:104C300008F0B2C00E94420D90931C0480931B04A4
:104C4000FE01E150F047E232F10520F4E755FE4C59
:104C50000C94B63080911B04816080931B0493C038
:104C600080911C04886080931C048DC080911B047B
:104C70008260F3CF80911B048460EFCF80911B048E
:104C80008860EBCF80911C048160EDCF80911C0483
:104C90008260E9CF80911B048061DFCF80911B048B
:104CA0008062DBCF80911B048064D7CF0E9476079F
:104CB00080911B048068D1CF80911B048C60CDCF84
:104CC00080911C048360CFCF80911B048E7FC5CF61
:104CD00080911C04877FC7CF80911B048D7FBDCF3F
:104CE00080911B048B7FB9CF80911B04877FB5CF48
:104CF00080911C048E7FB7CF80911C048D7FB3CF31
:104D000080911B048F7EA9CF80911B048F7DA5CF3E
:104D100080911B048F7BA1CF0E94760780911B049A
:104D20008F779BCF80911B04837F97CF80911C044A
:104D30008C7F99CF80911B0482FB992790F921E009
:104D4000922790FB82F990FB83F987CF80911C0416
:104D5000982F909591708E7F892B90FB81F983CF4E
:104D600090911B04892F8F7B96FF806476CF0E94E1
:104D7000760790911B04892F97FB87F980586DCF98
:104D800081E00E94BF0D80911B0490911C040E9441
:104D9000470D0E94760780E0DF91CF91089580E073
:104DA000F0CF90911B04892F8F7E94FF806155CFA7
:104DB00090911B04892F8E7F90FF81604ECF909140
:104DC0001C04892F877F93FF88604DCF81E0E4CF5B
:104DD000CF93DF93EB0186319C4711F50E943F0C86
:104DE0009A81992399F08A7A91E009F490E090935E
:104DF0000504811109C089E20E94170C0E94800CF1
:104E000080E0DF91CF91089585E3F6CF809105048E
:104E1000811104C089E20E941F0CF0CF85E3FBCF13
:104E200081E0EFCF0F931F93CF93DF93C42FD22F47
:104E3000FC0182818823C9F0409308040E94332931
:104E4000909307048093060480E28C0F883040F42E
:104E5000C77081E001C0880FCA95EAF70E940C056F
:104E6000DF91CF911F910F910895109108041413B1
:104E700032C080910604909107040E944B29883C1F
:104E8000910548F5C0E2CD0F1D17B9F080E2810F02
:104E9000883040F4177081E001C0880F1A95EAF756
:104EA0000E941305C83048F481E09D2F977001C01F
:104EB000880F9A95EAF70E940C05802F0E9403053F
:104EC000C83070F6D77081E001C0880FDA95EAF734
:104ED0000E941305C5CF80E28C0F883008F6C7709A
:104EE00081E001C0880FCA95EAF7F2CF0F93DB018A
:104EF00088519C4787309105A0F5FC01E553FE4C95
:104F00000C94B63006E221EE41EE6AE17CE7CD0179
:104F10000E94122780E00F91089507E225EE45EEEA
:104F20006BE17CE7F4CF06E221EE40EE68E17CE73E
:104F3000EECF07E225EE44EE69E17CE7E8CF06E23A
:104F400021EE42EE6CE17CE7E2CF07E225EE46EE91
:104F50006DE17CE7DCCF08E221E045EE6EE17CE725
:104F6000D6CF12968C91882319F010920804D3CFD3
:104F700081E0D1CF90938102809380020895909335
:104F80000E0480930D040895E0910D04F0910E0439
:104F9000309729F00190F081E02D0995089580E087
:104FA0000895E0910D04F0910E04309721F00280F5
:104FB000F381E02D09950895E0910D04F0910E0420
:104FC000309739F022E0DC012C930480F581E02D4C
:104FD00009950895A3E0B0E0E0EFF7E20C94CC303F
:104FE00020910B0430910C0428173907A1F09093FD
:104FF0000C0480930B04E0910D04F0910E043097A3
:1050000051F023E029839B838A830680F781E02D7A
:10501000CE01019609952396E2E00C94E830A3E0D6
:10502000B0E0E5E1F8E20C94CC3020910904309135
:105030000A0428173907A1F090930A048093090401
:10504000E0910D04F0910E04309751F024E0298393
:105050009B838A830680F781E02DCE010196099516
:105060002396E2E00C94E8309C012E5F3F4FAC01A8
:10507000485F5F4F80E02417350709F40895F90170
:1050800091919F019923B9F38F5FF5CF662349F082
:10509000FC01329608962191261729F0E817F907A6
:1050A000D1F780E0089581E008959C01FC013296DB
:1050B0009FEF80E04191461751F09F3F19F4411155
:1050C00001C0982F8F5F8630A9F79F3F09F408959C
:1050D000290F311D97FD3A95F90162830895FC016E
:1050E000329608962191261303C0DF0111971C9276
:1050F000E817F907B9F708950E94552808950E9406
:105100006F280895029626E0FC0111922A95E9F78E
:10511000089546E050E00E94F33021E0892B09F425
:1051200020E0822F089508950E9493280895811108
:1051300006C081E080930F040E949428089582E0C5
:10514000F9CF83E080930F040E94942808950E9471
:105150009728089581E080930F040E949428089571
:105160000E94AA2808950895089508950895CF9358
:105170000E94B5280E94D4110E94B628C0E08C2F4E
:105180000E940811892B31F4CF5FC430C1F780E051
:10519000CF91089581E0FCCF85B7806885BF85B742
:1051A000806885BF08951F921FB61F9211248F93A8
:1051B0009F93AF93BF9380911004811113C080918E
:1051C000FF0490910005A0910105B0910205419660
:1051D000A11DB11D8093FF0490930005A0930105CC
:1051E000B0930205BF91AF919F918F911F901FBE09
:1051F0001F90189580910705843031F10E94690352
:105200001092100488E190E020E40FB6F894A8957D
:10521000809360000FBE2093600083B7817F84601D
:1052200083BF83B7816083BF7894889583B78E7F6F
:1052300083BF0FB6F894A895809160008861809331
:105240006000109260000FBE08950E9476070E94D1
:105250007303089582E084BD93E095BD9AEF97BDF6
:1052600080936E0008952FB7F8948091FF04909179
:105270000005A0910105B09102052FBF08952FB739
:10528000F8946091FF047091000580910105909160
:1052900002052FBF08959C014FB7F8948091FF0439
:1052A00090910005A0910105B09102054FBF821BAE
:1052B000930B0895CF92DF92EF92FF922FB7F8945D
:1052C000C090FF04D0900005E0900105F090020529
:1052D0002FBFA7019601261B370B480B590BCA019C
:1052E000B901FF90EF90DF90CF90089578941F92CE
:1052F0001FB61F9211248F939F93AF93BF938091FA
:10530000FF0490910005A0910105B091020501965E
:10531000A11DB11D8093FF0490930005A09301058A
:10532000B0930205BF91AF919F918F911F901FBEC7
:105330001F90189581E08093E00080E28093D80070
:105340001092C9008FE19EE40197F1F700C00000C0
:1053500087E090EBDC018093100590931105A093FA
:105360001205B093130588E19CE00FB6F894A89558
:10537000809360000FBE90936000FFCF88E19CE0B7
:105380000FB6F894A895809360000FBE90936000CC
:10539000FFCF8091190408959B01BA0190910705F0
:1053A0009430E9F48F708093E9009FEF8091E800DA
:1053B000915085FD06C085ED8A95F1F700009111A9
:1053C000F5CF8091E80085FF0AC050E040E0C901B8
:1053D0000E94C62B8091E8008E778093E8000895A4
:1053E00043E050E0BC0182E00E94CC29089546E0F1
:1053F00050E0BC0182E00E94CC290895CF93DF9356
:10540000EC0148E050E0BC0181E00E94CC2988E03A
:10541000FE01A1E1B4E001900D928A95E1F7DF91E0
:10542000CF91089580910605811109C00E94562DE3
:105430000E94B32D8091E20084608093E200089581
:105440001092060508950E94AA2808956091030508
:1054500081E0611101C080E00E94A128089590912F
:10546000070581E0943009F080E0609103050E9417
:10547000A728089542E061EC81E00E94D22C42E22C
:1054800061EC82E00E94D22C9091070581E094307B
:1054900009F080E0609103050E94972808958091AB
:1054A0000905833009F461C030F48130D1F18230D4
:1054B00009F49EC008958A3009F48AC08B3009F43B
:1054C0006FC0893009F050C080910805813209F021
:1054D0004BC080910C0590910D05029708F044C0D7
:1054E0008091E800877F8093E8008091E80082FF48
:1054F00037C09091F3008091F200029731F48091CF
:10550000F100813011F0863021F48091F100809318
:1055100019048091E8008B778093E8000E94062DA3
:1055200023C080910805813AF9F48091E800877FD3
:105530008093E80080910C0590910D05892B61F412
:1055400068E081E194E070E00E94152C8091E80011
:105550008B778093E800089560E090E080E0F3CFDF
:10556000809107058111C1CF089580910805813A86
:10557000D9F780910C0590910D05892BA9F78091A1
:10558000E800877F8093E8008091E80080FFFCCFEF
:105590008091E9018093F1008091E8008E77BCCF83
:1055A00080910805813201F780910C0590910D05DD
:1055B000892BD1F68091E800877F8093E8000E94D4
:1055C000062D80910A058093E9010E9476070895CF
:1055D00080910805813241F68091E800877F8093B1
:1055E000E8000E94062D80910B0580931A0408950F
:1055F00080910805813A09F0B7CF8091E800877F54
:105600008093E8008091E80080FFFCCF80911A042D
:10561000C1CF84B7877F84BF0FB6F894A8958091D7
:105620006000886180936000109260000FBE80E887
:1056300090E00FB6F89480936100909361000FBEE4
:105640000E94B02808950E94562D0E94B32DE2EECC
:10565000F0E080818460808378940E9432300895E5
:1056600081EE91E00E94BF27089580910705853063
:1056700031F480910705853019F00E94252908959D
:105680000E94FA2880910505882399F30E94B72883
:10569000882379F30E94B02B0E947607EACF089501
:1056A0009A0140910E0550910F050E94582B0895C4
:1056B000492F55274330510519F168F44130510500
:1056C00009F444C04230510509F445C090E080E03F
:1056D00050E040E025C04132510549F142325105C8
:1056E000A9F780E490E044E354E061157105C1F04E
:1056F0008BE790E049EB53E06130710589F0E6CF2C
:1057000099278130910581F0009729F00297F1F6F1
:10571000ECE2F3E002C0E8E6F3E0849190E0AF0150
:10572000F901518340830895E0E5F3E0F6CF89E085
:1057300090E04EE753E06115710591F389E090E048
:1057400047E953E06130710559F3C0CF82E190E041
:1057500047EA53E0E5CF8BE390E04CE653E0E0CF3F
:1057600080E189BD82E189BD09B400FEFDCF809151
:10577000D8008F7D8093D8008091E0008260809374
:10578000E0008091E00081FDFCCF0895AF92BF92D0
:10579000CF92DF92FF920F931F93CF93DF936C0111
:1057A000EB018A010E94252DF82E811123C00115DD
:1057B000110539F0F80180819181C81BD90BC80E01
:1057C000D91EB12CA12C2097A9F08091E80085FD6D
:1057D00022C08091E8008E778093E80001151105C2
:1057E000A1F0F80180819181A80EB91EB182A0823A
:1057F00085E0F82E8F2DDF91CF911F910F91FF90B3
:10580000DF90CF90BF90AF9008950E94252D882300
:10581000D1F2F82EEFCFF60181916F018093F10064
:105820002197FFEFAF1ABF0ACECFFC0180910E0582
:1058300090910F0586179707A0F06115710529F45F
:105840009091E8009E779093E80090E061157105D3
:1058500051F4911108C08091E80082FF34C080E0CB
:105860000895BC01F2CF809107058823C1F18530EE
:10587000C1F18091E80083FD30C08091E80082FD95
:10588000EACF8091E80080FFE1CF8091F300209182
:10589000F200382F6115710519F02830310558F0E4
:1058A00091E02830310509F090E02091E8002E7752
:1058B0002093E800CBCF81918093F1006150710972
:1058C0002F5F3F4FE7CF80910705882341F0853058
:1058D00041F08091E80083FFBECF81E0089582E02F
:1058E000089583E00895FC0180910E0590910F05C5
:1058F00086179707A0F06115710529F48091E800DB
:105900008E778093E80090E06115710551F4911154
:1059100008C08091E80082FF35C080E00895BC0196
:10592000F2CF809107058823C9F18530C9F18091B4
:10593000E80083FD31C08091E80082FDEACF8091CC
:10594000E80080FFE1CF8091F3002091F200382F32
:105950006115710519F02830310558F091E02830B3
:10596000310509F090E08091E8008E778093E8009F
:10597000CBCF84918093F1003196615071092F5FF4
:105980003F4FE6CF80910705882341F0853041F0F5
:105990008091E80083FFBDCF81E0089582E0089503
:1059A00083E00895982F973028F08F708093E90056
:1059B00081E008959093E900242F762F50E0981706
:1059C00031F07091EC002091ED005091F00021FD3C
:1059D00002C09F5FE8CF3091EB003E7F3093EB0039
:1059E0003091ED003D7F3093ED003091EB00316060
:1059F0003093EB007093EC002093ED005093F00097
:105A00002091EE0027FDE5CF80E008958091080504
:105A100087FF13C08091E80082FF06C08091E800F4
:105A20008B778093E80004C0809107058111F2CF45
:105A30000895809107058823D9F38091E80080FFBD
:105A4000F8CF8091E8008E77ECCF2091E400309180
:105A5000E50095E6A9012091EC00822F817020FFDE
:105A600006C08091E80080FF06C080E00895209184
:105A7000E80022FD1AC080910705882389F085304F
:105A800089F08091EB0085FD0FC02091E4003091FA
:105A9000E50042175307F9F29150E1F684E00895CA
:105AA00082E0089583E0089581E008950E94C52D65
:105AB0000E94CD2DE0EEF0E0808181608083E8EDF2
:105AC000F0E080818F77808319BCA7EDB0E08C91E6
:105AD0008E7F8C9380818F7E80831092060508953F
